{
  "contractName": "MarketplaceLogic",
  "abi": [
    {
      "constant": true,
      "inputs": [
        {
          "name": "",
          "type": "address"
        }
      ],
      "name": "applicantStores",
      "outputs": [
        {
          "name": "",
          "type": "bool"
        }
      ],
      "payable": false,
      "stateMutability": "view",
      "type": "function"
    },
    {
      "constant": true,
      "inputs": [],
      "name": "percentageMin",
      "outputs": [
        {
          "name": "",
          "type": "uint256"
        }
      ],
      "payable": false,
      "stateMutability": "view",
      "type": "function"
    },
    {
      "constant": true,
      "inputs": [
        {
          "name": "",
          "type": "uint256"
        }
      ],
      "name": "iteratorStorefront",
      "outputs": [
        {
          "name": "",
          "type": "address"
        }
      ],
      "payable": false,
      "stateMutability": "view",
      "type": "function"
    },
    {
      "constant": true,
      "inputs": [
        {
          "name": "",
          "type": "address"
        }
      ],
      "name": "stores",
      "outputs": [
        {
          "name": "owner",
          "type": "address"
        },
        {
          "name": "location",
          "type": "address"
        },
        {
          "name": "name",
          "type": "bytes32"
        },
        {
          "name": "state",
          "type": "uint8"
        },
        {
          "name": "isValue",
          "type": "bool"
        }
      ],
      "payable": false,
      "stateMutability": "view",
      "type": "function"
    },
    {
      "constant": true,
      "inputs": [],
      "name": "owner",
      "outputs": [
        {
          "name": "",
          "type": "address"
        }
      ],
      "payable": false,
      "stateMutability": "view",
      "type": "function"
    },
    {
      "constant": true,
      "inputs": [],
      "name": "percentageMax",
      "outputs": [
        {
          "name": "",
          "type": "uint256"
        }
      ],
      "payable": false,
      "stateMutability": "view",
      "type": "function"
    },
    {
      "inputs": [],
      "payable": false,
      "stateMutability": "nonpayable",
      "type": "constructor"
    },
    {
      "anonymous": false,
      "inputs": [
        {
          "indexed": false,
          "name": "_sid",
          "type": "address"
        }
      ],
      "name": "LogApplicationReceived",
      "type": "event"
    },
    {
      "anonymous": false,
      "inputs": [
        {
          "indexed": false,
          "name": "_sid",
          "type": "address"
        }
      ],
      "name": "LogApplicationAccepted",
      "type": "event"
    },
    {
      "anonymous": false,
      "inputs": [
        {
          "indexed": false,
          "name": "_sid",
          "type": "address"
        }
      ],
      "name": "LogApplicationRejected",
      "type": "event"
    },
    {
      "anonymous": false,
      "inputs": [
        {
          "indexed": false,
          "name": "_sid",
          "type": "address"
        }
      ],
      "name": "LogStoreSuspended",
      "type": "event"
    },
    {
      "anonymous": false,
      "inputs": [
        {
          "indexed": false,
          "name": "_sid",
          "type": "address"
        }
      ],
      "name": "LogStoreRemoved",
      "type": "event"
    },
    {
      "anonymous": false,
      "inputs": [
        {
          "indexed": false,
          "name": "myString",
          "type": "string"
        },
        {
          "indexed": false,
          "name": "myAddress",
          "type": "address"
        }
      ],
      "name": "myLog",
      "type": "event"
    },
    {
      "constant": false,
      "inputs": [],
      "name": "whoAmI",
      "outputs": [
        {
          "name": "",
          "type": "uint256"
        }
      ],
      "payable": false,
      "stateMutability": "nonpayable",
      "type": "function"
    },
    {
      "constant": false,
      "inputs": [
        {
          "name": "storeName",
          "type": "bytes32"
        }
      ],
      "name": "applyToMarketplace",
      "outputs": [
        {
          "name": "",
          "type": "uint256"
        }
      ],
      "payable": false,
      "stateMutability": "nonpayable",
      "type": "function"
    },
    {
      "constant": false,
      "inputs": [
        {
          "name": "sid",
          "type": "address"
        }
      ],
      "name": "acceptApplicantStore",
      "outputs": [],
      "payable": false,
      "stateMutability": "nonpayable",
      "type": "function"
    },
    {
      "constant": false,
      "inputs": [
        {
          "name": "sid",
          "type": "address"
        }
      ],
      "name": "rejectApplicantStore",
      "outputs": [],
      "payable": false,
      "stateMutability": "nonpayable",
      "type": "function"
    },
    {
      "constant": false,
      "inputs": [
        {
          "name": "sid",
          "type": "address"
        }
      ],
      "name": "suspendStore",
      "outputs": [],
      "payable": false,
      "stateMutability": "nonpayable",
      "type": "function"
    },
    {
      "constant": false,
      "inputs": [
        {
          "name": "sid",
          "type": "address"
        }
      ],
      "name": "removeStore",
      "outputs": [],
      "payable": false,
      "stateMutability": "nonpayable",
      "type": "function"
    },
    {
      "constant": false,
      "inputs": [],
      "name": "getAcceptedStores",
      "outputs": [],
      "payable": false,
      "stateMutability": "nonpayable",
      "type": "function"
    },
    {
      "constant": false,
      "inputs": [
        {
          "name": "sid",
          "type": "address"
        }
      ],
      "name": "getState",
      "outputs": [
        {
          "name": "",
          "type": "uint256"
        }
      ],
      "payable": false,
      "stateMutability": "nonpayable",
      "type": "function"
    }
  ],
  "bytecode": "0x60806040526007600555600c60065534801561001a57600080fd5b5060006004819055506113c3806100326000396000f3006080604052600436106100d0576000357c0100000000000000000000000000000000000000000000000000000000900463ffffffff16806310a3ad2b146100d557806311e312a8146101305780631bab58f5146101755780631e1e3a7e146101cc5780631f56f063146101f7578063621df53414610264578063820bf295146103495780638797e10a1461038c5780638da5cb5b146103a35780638dbe1a17146103fa5780638f96bd0c1461043d578063c6ecfb6b14610480578063da91254c146104ab578063dd9479ca146104d6575b600080fd5b3480156100e157600080fd5b50610116600480360381019080803573ffffffffffffffffffffffffffffffffffffffff169060200190929190505050610519565b604051808215151515815260200191505060405180910390f35b34801561013c57600080fd5b5061015f6004803603810190808035600019169060200190929190505050610539565b6040518082815260200191505060405180910390f35b34801561018157600080fd5b506101b6600480360381019080803573ffffffffffffffffffffffffffffffffffffffff169060200190929190505050610a86565b6040518082815260200191505060405180910390f35b3480156101d857600080fd5b506101e1610aea565b6040518082815260200191505060405180910390f35b34801561020357600080fd5b5061022260048036038101908080359060200190929190505050610af0565b604051808273ffffffffffffffffffffffffffffffffffffffff1673ffffffffffffffffffffffffffffffffffffffff16815260200191505060405180910390f35b34801561027057600080fd5b506102a5600480360381019080803573ffffffffffffffffffffffffffffffffffffffff169060200190929190505050610b2e565b604051808673ffffffffffffffffffffffffffffffffffffffff1673ffffffffffffffffffffffffffffffffffffffff1681526020018573ffffffffffffffffffffffffffffffffffffffff1673ffffffffffffffffffffffffffffffffffffffff168152602001846000191660001916815260200183600481111561032757fe5b60ff168152602001821515151581526020019550505050505060405180910390f35b34801561035557600080fd5b5061038a600480360381019080803573ffffffffffffffffffffffffffffffffffffffff169060200190929190505050610bbe565b005b34801561039857600080fd5b506103a1610d8d565b005b3480156103af57600080fd5b506103b8610d8f565b604051808273ffffffffffffffffffffffffffffffffffffffff1673ffffffffffffffffffffffffffffffffffffffff16815260200191505060405180910390f35b34801561040657600080fd5b5061043b600480360381019080803573ffffffffffffffffffffffffffffffffffffffff169060200190929190505050610db4565b005b34801561044957600080fd5b5061047e600480360381019080803573ffffffffffffffffffffffffffffffffffffffff169060200190929190505050610f83565b005b34801561048c57600080fd5b50610495611152565b6040518082815260200191505060405180910390f35b3480156104b757600080fd5b506104c0611158565b6040518082815260200191505060405180910390f35b3480156104e257600080fd5b50610517600480360381019080803573ffffffffffffffffffffffffffffffffffffffff16906020019092919050505061115d565b005b60026020528060005260406000206000915054906101000a900460ff1681565b600061054361132b565b3273ffffffffffffffffffffffffffffffffffffffff163373ffffffffffffffffffffffffffffffffffffffff1614151561060c576040517f08c379a00000000000000000000000000000000000000000000000000000000081526004018080602001828103825260268152602001807f636f6e74726163747320617265206e6f7420616c6c6f77656420746f20696e7481526020017f65726163742e000000000000000000000000000000000000000000000000000081525060400191505060405180910390fd5b3360001515600160008373ffffffffffffffffffffffffffffffffffffffff1673ffffffffffffffffffffffffffffffffffffffff16815260200190815260200160002060030160019054906101000a900460ff1615151415156106fe576040517f08c379a000000000000000000000000000000000000000000000000000000000815260040180806020018281038252603b8152602001807f73746f726520697320616c726561647920726567697374656420696e2074686581526020017f206d61726b6574706c6163652c2073746f7265206578697374732e000000000081525060400191505060405180910390fd5b7f43e6516384f750b0d73ca7b064df40c2fef7985c226132825e2257ba7f8555513260405180806020018373ffffffffffffffffffffffffffffffffffffffff1673ffffffffffffffffffffffffffffffffffffffff1681526020018281038252600d8152602001807f2a74782e6f726967696e203d20000000000000000000000000000000000000008152506020019250505060405180910390a17f43e6516384f750b0d73ca7b064df40c2fef7985c226132825e2257ba7f8555513360405180806020018373ffffffffffffffffffffffffffffffffffffffff1673ffffffffffffffffffffffffffffffffffffffff1681526020018281038252600e8152602001807f2a6d73672e73656e646572203d200000000000000000000000000000000000008152506020019250505060405180910390a132826000019073ffffffffffffffffffffffffffffffffffffffff16908173ffffffffffffffffffffffffffffffffffffffff168152505033826020019073ffffffffffffffffffffffffffffffffffffffff16908173ffffffffffffffffffffffffffffffffffffffff168152505083826040019060001916908160001916815250506000826060019060048111156108cc57fe5b908160048111156108d957fe5b81525050600182608001901515908115158152505081600160003373ffffffffffffffffffffffffffffffffffffffff1673ffffffffffffffffffffffffffffffffffffffff16815260200190815260200160002060008201518160000160006101000a81548173ffffffffffffffffffffffffffffffffffffffff021916908373ffffffffffffffffffffffffffffffffffffffff16021790555060208201518160010160006101000a81548173ffffffffffffffffffffffffffffffffffffffff021916908373ffffffffffffffffffffffffffffffffffffffff1602179055506040820151816002019060001916905560608201518160030160006101000a81548160ff021916908360048111156109f057fe5b021790555060808201518160030160016101000a81548160ff0219169083151502179055509050507fb9ca7a910227a0751da8720c55e96dc7e36b851cdd27f339fb8963809e73b14a33604051808273ffffffffffffffffffffffffffffffffffffffff1673ffffffffffffffffffffffffffffffffffffffff16815260200191505060405180910390a1600192505050919050565b6000600160008373ffffffffffffffffffffffffffffffffffffffff1673ffffffffffffffffffffffffffffffffffffffff16815260200190815260200160002060030160009054906101000a900460ff166004811115610ae357fe5b9050919050565b60055481565b600381815481101515610aff57fe5b906000526020600020016000915054906101000a900473ffffffffffffffffffffffffffffffffffffffff1681565b60016020528060005260406000206000915090508060000160009054906101000a900473ffffffffffffffffffffffffffffffffffffffff16908060010160009054906101000a900473ffffffffffffffffffffffffffffffffffffffff16908060020154908060030160009054906101000a900460ff16908060030160019054906101000a900460ff16905085565b8060016004811115610bcc57fe5b600160008373ffffffffffffffffffffffffffffffffffffffff1673ffffffffffffffffffffffffffffffffffffffff16815260200190815260200160002060030160009054906101000a900460ff166004811115610c2757fe5b141515610cc2576040517f08c379a00000000000000000000000000000000000000000000000000000000081526004018080602001828103825260278152602001807f73746f7265207374617465206973206e6f74204170706c69636174696f6e416381526020017f6365707465642e0000000000000000000000000000000000000000000000000081525060400191505060405180910390fd5b6003600160008473ffffffffffffffffffffffffffffffffffffffff1673ffffffffffffffffffffffffffffffffffffffff16815260200190815260200160002060030160006101000a81548160ff02191690836004811115610d2157fe5b02179055507f94bb56405c92f6145f233b779556e54222826b1b4b4b08baad1fa5bdf9429c1682604051808273ffffffffffffffffffffffffffffffffffffffff1673ffffffffffffffffffffffffffffffffffffffff16815260200191505060405180910390a15050565b565b6000809054906101000a900473ffffffffffffffffffffffffffffffffffffffff1681565b8060016004811115610dc257fe5b600160008373ffffffffffffffffffffffffffffffffffffffff1673ffffffffffffffffffffffffffffffffffffffff16815260200190815260200160002060030160009054906101000a900460ff166004811115610e1d57fe5b141515610eb8576040517f08c379a00000000000000000000000000000000000000000000000000000000081526004018080602001828103825260278152602001807f73746f7265207374617465206973206e6f74204170706c69636174696f6e416381526020017f6365707465642e0000000000000000000000000000000000000000000000000081525060400191505060405180910390fd5b6004600160008473ffffffffffffffffffffffffffffffffffffffff1673ffffffffffffffffffffffffffffffffffffffff16815260200190815260200160002060030160006101000a81548160ff02191690836004811115610f1757fe5b02179055507fda58a27923d6106fa05eefbc64393e7236b35ea60ad560032505a2288745725a82604051808273ffffffffffffffffffffffffffffffffffffffff1673ffffffffffffffffffffffffffffffffffffffff16815260200191505060405180910390a15050565b8060006004811115610f9157fe5b600160008373ffffffffffffffffffffffffffffffffffffffff1673ffffffffffffffffffffffffffffffffffffffff16815260200190815260200160002060030160009054906101000a900460ff166004811115610fec57fe5b141515611087576040517f08c379a00000000000000000000000000000000000000000000000000000000081526004018080602001828103825260268152602001807f73746f7265207374617465206973206e6f74204170706c69636174696f6e526581526020017f63656976652e000000000000000000000000000000000000000000000000000081525060400191505060405180910390fd5b6002600160008473ffffffffffffffffffffffffffffffffffffffff1673ffffffffffffffffffffffffffffffffffffffff16815260200190815260200160002060030160006101000a81548160ff021916908360048111156110e657fe5b02179055507f93029c434f10e3204aae2daa814918b9d46b388c02943d43ff706875cda3296282604051808273ffffffffffffffffffffffffffffffffffffffff1673ffffffffffffffffffffffffffffffffffffffff16815260200191505060405180910390a15050565b60065481565b600090565b806000600481111561116b57fe5b600160008373ffffffffffffffffffffffffffffffffffffffff1673ffffffffffffffffffffffffffffffffffffffff16815260200190815260200160002060030160009054906101000a900460ff1660048111156111c657fe5b141515611261576040517f08c379a00000000000000000000000000000000000000000000000000000000081526004018080602001828103825260268152602001807f73746f7265207374617465206973206e6f74204170706c69636174696f6e526581526020017f63656976652e000000000000000000000000000000000000000000000000000081525060400191505060405180910390fd5b60018060008473ffffffffffffffffffffffffffffffffffffffff1673ffffffffffffffffffffffffffffffffffffffff16815260200190815260200160002060030160006101000a81548160ff021916908360048111156112bf57fe5b02179055507f7466f4ee15b522a7a2066a77d26c9f40fe956349a4d879b263017c4cd9f4df4c82604051808273ffffffffffffffffffffffffffffffffffffffff1673ffffffffffffffffffffffffffffffffffffffff16815260200191505060405180910390a15050565b60a060405190810160405280600073ffffffffffffffffffffffffffffffffffffffff168152602001600073ffffffffffffffffffffffffffffffffffffffff168152602001600080191681526020016000600481111561138857fe5b815260200160001515815250905600a165627a7a723058200e40bac56c55498ec027f8a89348c3f5657cf9460a48d9ab1695b491a4f8398f0029",
  "source": "pragma solidity ^0.4.24;\n\ncontract MarketplaceLogic {\n\n    /* Let's make sure everyone knows who owns the Markeplace. */\n    address public owner;\n\n    /* Who ami ? */\n\n    //For futur use\n    //mapping (address => bool) marketplaceAdmin;\n    //mapping (address => bool) storeOwners;\n    //mapping (address => bool) storeVisitors;\n\n    /* Fill in the keyword. Hint: We want to protect our users balance from other contracts*/\n\n    mapping (address => Store) public stores;\n\n    //Mapping/iterator of applicant stores\n    mapping (address => bool) public applicantStores;\n\n    //deprecated\n    //address [] public iterApplicantStore;\n    //address [] public applicantStores;\n    //address [] public acceptedStores;\n    //address [] public rejectedStore;\n    //address [] public suspendedStore;\n    //address [] public removedStore;\n\n    //mapping (address => Storefront[]) internal storesfronts;\n    address [] public iteratorStorefront;\n\n    /*Store index*/\n    uint256 StoreNumber;\n\n    /* business compliance */\n    uint256 public percentageMin = 7;\n    uint256 public percentageMax = 12;\n\n    /* Storefront is a struct */\n    struct Store {\n      address owner; //store soner = tx.origin\n      address location;\n      bytes32 name;\n      State state;\n      bool isValue;\n    }\n\n    enum State {\n      ApplicationReceived,\n      ApplicationAccepted,\n      ApplicationRejected,\n      StoreSuspended,\n      StoreRemoved\n    }\n\n    /*Event*/\n      event LogApplicationReceived(address _sid);\n      event LogApplicationAccepted(address _sid);\n      event LogApplicationRejected(address _sid);\n      event LogStoreSuspended(address _sid);\n      event LogStoreRemoved(address _sid);\n      event myLog (string myString, address myAddress);\n\n    /* Modifiers */\n\n    modifier doesNotExist(address sid)\n    {\n      require (\n        bool(stores[sid].isValue) == bool(false),\n        \"store is already registed in the marketplace, store exists.\"\n      );\n      _;\n    }\n\n    modifier doesExist(address sid)\n    {\n      require (\n        bool(stores[sid].isValue) == bool(true),\n        \"store is not registed in the marketplace, store does not exist.\"\n      );\n      _;\n    }\n\n    modifier isNotAContract(){\n    require (\n      msg.sender == tx.origin, \"contracts are not allowed to interact.\");\n    _;\n    }\n\n    modifier isAContract(){\n    require (\n      msg.sender != tx.origin, \"contracts are not allowed to interact.\");\n    _;\n    }\n\n    modifier applicationReceived(address _sid)\n    {\n        require(\n          uint(stores[_sid].state) == uint(State.ApplicationReceived),\n          \"store state is not ApplicationReceive.\"\n        );\n        _;\n    }\n\n    modifier applicationAccepted(address _sid)\n    {\n        require(\n          uint(stores[_sid].state) == uint(State.ApplicationAccepted),\n          \"store state is not ApplicationAccepted.\"\n        );\n        _;\n    }\n\n    modifier applicationRejected(address _sid)\n    {\n        require(\n          uint(stores[_sid].state) == uint(State.ApplicationRejected),\n          \"store state is not ApplicationRejected.\"\n        );\n        _;\n    }\n\n    modifier storeSuspended(address _sid)\n    {\n        require(\n          uint(stores[_sid].state) == uint(State.StoreSuspended),\n          \"store state is not StoreSuspended.\"\n        );\n        _;\n    }\n\n    modifier storeRemoved(address _sid)\n    {\n        require(\n          uint(stores[_sid].state) == uint(State.StoreRemoved),\n          \"store state is not StoreSuspended.\"\n        );\n        _;\n    }\n\n    //Add event Log\n    //To be done\n\n    constructor () public {\n        /* Set the owner to the creator of this contract */\n        //owner = msg.sender;\n        StoreNumber = 0;\n    }\n\n    function whoAmI()\n      public\n      returns (uint)\n    {\n      //Admin .\n      //StoreOwner ?\n      //Visitor\n    }\n\n    function applyToMarketplace(bytes32 storeName)\n      public\n      //isAContract\n      isNotAContract()\n      doesNotExist(msg.sender)\n      returns (uint256)\n    {\n      //Function to be called by the constructor of the store\n\n      emit myLog (\"*tx.origin = \", tx.origin);\n      emit myLog (\"*msg.sender = \", msg.sender);\n      //Fill the store information\n      Store memory store;\n      store.owner = tx.origin;\n      store.location = msg.sender;\n      store.name = storeName;\n      store.state = State.ApplicationReceived;\n      store.isValue = true;\n      stores[msg.sender] = store;\n      //fill applicantStore\n      //applicantStore[msg.sender] = true;\n      //iterApplicantStore.push(msg.sender);\n      emit LogApplicationReceived(msg.sender);\n        //deprecated\n        //applicantStores.push(msg.sender);\n      return(uint(1));\n    }\n/*\n    function getApplicantStores()\n      public\n      //onlyOwner\n      returns (address[])\n    {\n      //itérer sur stores\n      //build applicantStores\n      //return applicantStores; // ie : store with state == ApplicationReceived\n    }\n*/\n    function acceptApplicantStore(address sid)\n      public\n\n      //doesExist(sid)\n      applicationReceived(sid)\n      // TBD\n      //onlyMArketplaceOwner\n    {\n      stores[sid].state = State.ApplicationAccepted;\n      emit LogApplicationAccepted(sid);\n    }\n\n    function rejectApplicantStore(address sid)\n      public\n      //doesExist(sid)\n      applicationReceived(sid)\n      //only Marketplace Owner\n    {\n      stores[sid].state = State.ApplicationRejected;\n      emit LogApplicationRejected(sid);\n    }\n\n    function suspendStore(address sid)\n      public\n      //doesExist(sid)\n      applicationAccepted(sid)\n      //only Marketplace Owner\n    {\n      stores[sid].state = State.StoreSuspended;\n      emit LogStoreSuspended(sid);\n    }\n\n    function removeStore(address sid)\n      public\n      //doesExist(sid)\n      applicationAccepted(sid)\n      //only store owner\n    {\n      stores[sid].state = State.StoreRemoved;\n      emit LogStoreRemoved(sid);\n    }\n\n    function getAcceptedStores()\n      public\n      //returns array address\n      //returns (address[])\n    {\n      //for, cosntruct array, return it\n    }\n\n    function getState(address sid)\n      public\n      returns (uint256)\n    {\n      return(uint256(stores[sid].state));\n    }\n}\n",
  "sourcePath": "/Users/MikaelKais/Desktop/Consensys/projects/Marketplace/contracts/MarketplaceLogic.sol",
  "compiler": {
    "name": "solc",
    "version": "0.4.24+commit.e67f0147.Emscripten.clang"
  },
  "schemaVersion": "2.0.1",
  "updatedAt": "2018-08-19T10:38:05.076Z"
}