{
  "contractName": "MarketplaceLogic",
  "abi": [
    {
      "constant": true,
      "inputs": [
        {
          "name": "",
          "type": "uint256"
        }
      ],
      "name": "storeNames",
      "outputs": [
        {
          "name": "",
          "type": "bytes32"
        }
      ],
      "payable": false,
      "stateMutability": "view",
      "type": "function"
    },
    {
      "constant": true,
      "inputs": [
        {
          "name": "",
          "type": "uint256"
        }
      ],
      "name": "iterUsers",
      "outputs": [
        {
          "name": "",
          "type": "address"
        }
      ],
      "payable": false,
      "stateMutability": "view",
      "type": "function"
    },
    {
      "constant": true,
      "inputs": [
        {
          "name": "",
          "type": "address"
        }
      ],
      "name": "Users",
      "outputs": [
        {
          "name": "role",
          "type": "uint8"
        },
        {
          "name": "idxIterUsers",
          "type": "uint256"
        },
        {
          "name": "isValue",
          "type": "bool"
        }
      ],
      "payable": false,
      "stateMutability": "view",
      "type": "function"
    },
    {
      "constant": true,
      "inputs": [
        {
          "name": "",
          "type": "uint256"
        }
      ],
      "name": "iterStores",
      "outputs": [
        {
          "name": "",
          "type": "address"
        }
      ],
      "payable": false,
      "stateMutability": "view",
      "type": "function"
    },
    {
      "constant": true,
      "inputs": [
        {
          "name": "",
          "type": "address"
        }
      ],
      "name": "Stores",
      "outputs": [
        {
          "name": "name",
          "type": "bytes32"
        },
        {
          "name": "idxIterStores",
          "type": "uint256"
        },
        {
          "name": "isValue",
          "type": "bool"
        }
      ],
      "payable": false,
      "stateMutability": "view",
      "type": "function"
    },
    {
      "inputs": [],
      "payable": false,
      "stateMutability": "nonpayable",
      "type": "constructor"
    },
    {
      "payable": false,
      "stateMutability": "nonpayable",
      "type": "fallback"
    },
    {
      "anonymous": false,
      "inputs": [
        {
          "indexed": false,
          "name": "_req",
          "type": "address"
        }
      ],
      "name": "LogNewMarketplace",
      "type": "event"
    },
    {
      "anonymous": false,
      "inputs": [
        {
          "indexed": false,
          "name": "_req",
          "type": "address"
        },
        {
          "indexed": false,
          "name": "_user",
          "type": "address"
        }
      ],
      "name": "LogAdminAdded",
      "type": "event"
    },
    {
      "anonymous": false,
      "inputs": [
        {
          "indexed": false,
          "name": "_req",
          "type": "address"
        },
        {
          "indexed": false,
          "name": "_user",
          "type": "address"
        }
      ],
      "name": "LogAdminDeleted",
      "type": "event"
    },
    {
      "anonymous": false,
      "inputs": [
        {
          "indexed": false,
          "name": "_req",
          "type": "address"
        },
        {
          "indexed": false,
          "name": "_user",
          "type": "address"
        }
      ],
      "name": "LogApprStoreOwnerAdded",
      "type": "event"
    },
    {
      "anonymous": false,
      "inputs": [
        {
          "indexed": false,
          "name": "_req",
          "type": "address"
        },
        {
          "indexed": false,
          "name": "_user",
          "type": "address"
        }
      ],
      "name": "LogApprStoreOWnerDeleted",
      "type": "event"
    },
    {
      "anonymous": false,
      "inputs": [
        {
          "indexed": false,
          "name": "_req",
          "type": "address"
        },
        {
          "indexed": false,
          "name": "_store",
          "type": "address"
        }
      ],
      "name": "LogNewStore",
      "type": "event"
    },
    {
      "anonymous": false,
      "inputs": [
        {
          "indexed": false,
          "name": "_req",
          "type": "address"
        },
        {
          "indexed": false,
          "name": "_store",
          "type": "address"
        }
      ],
      "name": "LogStoreDeleted",
      "type": "event"
    },
    {
      "anonymous": false,
      "inputs": [
        {
          "indexed": false,
          "name": "myString",
          "type": "string"
        },
        {
          "indexed": false,
          "name": "myAddress",
          "type": "address"
        }
      ],
      "name": "myLog",
      "type": "event"
    },
    {
      "constant": false,
      "inputs": [
        {
          "name": "user",
          "type": "address"
        }
      ],
      "name": "addAdmin",
      "outputs": [],
      "payable": false,
      "stateMutability": "nonpayable",
      "type": "function"
    },
    {
      "constant": false,
      "inputs": [
        {
          "name": "user",
          "type": "address"
        }
      ],
      "name": "deleteAdmin",
      "outputs": [],
      "payable": false,
      "stateMutability": "nonpayable",
      "type": "function"
    },
    {
      "constant": false,
      "inputs": [
        {
          "name": "user",
          "type": "address"
        }
      ],
      "name": "addAprovedStoreOwner",
      "outputs": [],
      "payable": false,
      "stateMutability": "nonpayable",
      "type": "function"
    },
    {
      "constant": false,
      "inputs": [
        {
          "name": "user",
          "type": "address"
        }
      ],
      "name": "deleteApprovedStoredOwner",
      "outputs": [],
      "payable": false,
      "stateMutability": "nonpayable",
      "type": "function"
    },
    {
      "constant": true,
      "inputs": [
        {
          "name": "user",
          "type": "address"
        }
      ],
      "name": "getUserRole",
      "outputs": [
        {
          "name": "",
          "type": "uint256"
        }
      ],
      "payable": false,
      "stateMutability": "view",
      "type": "function"
    },
    {
      "constant": true,
      "inputs": [
        {
          "name": "user",
          "type": "address"
        },
        {
          "name": "role",
          "type": "uint8"
        }
      ],
      "name": "userExists",
      "outputs": [
        {
          "name": "",
          "type": "bool"
        }
      ],
      "payable": false,
      "stateMutability": "view",
      "type": "function"
    },
    {
      "constant": true,
      "inputs": [],
      "name": "getStoresNum",
      "outputs": [
        {
          "name": "",
          "type": "uint256"
        }
      ],
      "payable": false,
      "stateMutability": "view",
      "type": "function"
    },
    {
      "constant": true,
      "inputs": [],
      "name": "getStores",
      "outputs": [
        {
          "name": "",
          "type": "address[]"
        },
        {
          "name": "",
          "type": "bytes32[]"
        }
      ],
      "payable": false,
      "stateMutability": "view",
      "type": "function"
    },
    {
      "constant": false,
      "inputs": [
        {
          "name": "name",
          "type": "bytes32"
        }
      ],
      "name": "createStore",
      "outputs": [
        {
          "name": "",
          "type": "address"
        }
      ],
      "payable": false,
      "stateMutability": "nonpayable",
      "type": "function"
    }
  ],
  "bytecode": "0x6080604052600060025560006003556000600755600060085534801561002457600080fd5b503273ffffffffffffffffffffffffffffffffffffffff163373ffffffffffffffffffffffffffffffffffffffff161415156100ee576040517f08c379a00000000000000000000000000000000000000000000000000000000081526004018080602001828103825260268152602001807f636f6e74726163747320617265206e6f7420616c6c6f77656420746f20696e7481526020017f65726163742e000000000000000000000000000000000000000000000000000081525060400191505060405180910390fd5b60008060003373ffffffffffffffffffffffffffffffffffffffff1673ffffffffffffffffffffffffffffffffffffffff16815260200190815260200160002060000160006101000a81548160ff0219169083600281111561014c57fe5b02179055506002546000803373ffffffffffffffffffffffffffffffffffffffff1673ffffffffffffffffffffffffffffffffffffffff1681526020019081526020016000206002018190555060016000803373ffffffffffffffffffffffffffffffffffffffff1673ffffffffffffffffffffffffffffffffffffffff16815260200190815260200160002060030160006101000a81548160ff02191690831515021790555060013390806001815401808255809150509060018203906000526020600020016000909192909190916101000a81548173ffffffffffffffffffffffffffffffffffffffff021916908373ffffffffffffffffffffffffffffffffffffffff160217905550506003600081548092919060010191905055506002600081548092919060010191905055507f622e0e3f7c7ea7eb209daeb926b5c7c0f145ee61eb680a1173edceca7bf4ac7333604051808273ffffffffffffffffffffffffffffffffffffffff1673ffffffffffffffffffffffffffffffffffffffff16815260200191505060405180910390a17ffaee0269330752c7a43c8c1bfb334358e99a8ba5efb07a56b419ae8bdd279fa93332604051808373ffffffffffffffffffffffffffffffffffffffff1673ffffffffffffffffffffffffffffffffffffffff1681526020018273ffffffffffffffffffffffffffffffffffffffff1673ffffffffffffffffffffffffffffffffffffffff1681526020019250505060405180910390a1612e37806103866000396000f3006080604052600436106100d0576000357c0100000000000000000000000000000000000000000000000000000000900463ffffffff16806310bf0b6e146100e2578063278208511461012b57806327e1f7df146101825780634913d2bb146101c55780635417bd16146102085780635969aa35146102755780635dc917f0146102dd5780636e625cef1461039157806370480275146103d457806373a05d6a1461041757806389496d251461048857806399b956a0146104b35780639fba81431461052a578063b2befa5d14610597575b3480156100dc57600080fd5b50600080fd5b3480156100ee57600080fd5b5061010d60048036038101908080359060200190929190505050610608565b60405180826000191660001916815260200191505060405180910390f35b34801561013757600080fd5b5061016c600480360381019080803573ffffffffffffffffffffffffffffffffffffffff16906020019092919050505061062b565b6040518082815260200191505060405180910390f35b34801561018e57600080fd5b506101c3600480360381019080803573ffffffffffffffffffffffffffffffffffffffff169060200190929190505050610731565b005b3480156101d157600080fd5b50610206600480360381019080803573ffffffffffffffffffffffffffffffffffffffff169060200190929190505050610c73565b005b34801561021457600080fd5b506102336004803603810190808035906020019092919050505061101b565b604051808273ffffffffffffffffffffffffffffffffffffffff1673ffffffffffffffffffffffffffffffffffffffff16815260200191505060405180910390f35b34801561028157600080fd5b506102c3600480360381019080803573ffffffffffffffffffffffffffffffffffffffff169060200190929190803560ff169060200190929190505050611059565b604051808215151515815260200191505060405180910390f35b3480156102e957600080fd5b506102f2611121565b604051808060200180602001838103835285818151815260200191508051906020019060200280838360005b8381101561033957808201518184015260208101905061031e565b50505050905001838103825284818151815260200191508051906020019060200280838360005b8381101561037b578082015181840152602081019050610360565b5050505090500194505050505060405180910390f35b34801561039d57600080fd5b506103d2600480360381019080803573ffffffffffffffffffffffffffffffffffffffff16906020019092919050505061120e565b005b3480156103e057600080fd5b50610415600480360381019080803573ffffffffffffffffffffffffffffffffffffffff169060200190929190505050611637565b005b34801561042357600080fd5b5061044660048036038101908080356000191690602001909291905050506119f1565b604051808273ffffffffffffffffffffffffffffffffffffffff1673ffffffffffffffffffffffffffffffffffffffff16815260200191505060405180910390f35b34801561049457600080fd5b5061049d611e68565b6040518082815260200191505060405180910390f35b3480156104bf57600080fd5b506104f4600480360381019080803573ffffffffffffffffffffffffffffffffffffffff169060200190929190505050611e72565b6040518084600281111561050457fe5b60ff16815260200183815260200182151515158152602001935050505060405180910390f35b34801561053657600080fd5b5061055560048036038101908080359060200190929190505050611eb6565b604051808273ffffffffffffffffffffffffffffffffffffffff1673ffffffffffffffffffffffffffffffffffffffff16815260200191505060405180910390f35b3480156105a357600080fd5b506105d8600480360381019080803573ffffffffffffffffffffffffffffffffffffffff169060200190929190505050611ef4565b60405180846000191660001916815260200183815260200182151515158152602001935050505060405180910390f35b60068181548110151561061757fe5b906000526020600020016000915090505481565b6000600115156000808473ffffffffffffffffffffffffffffffffffffffff1673ffffffffffffffffffffffffffffffffffffffff16815260200190815260200160002060030160009054906101000a900460ff161515141561071d576000600281111561069557fe5b6000808473ffffffffffffffffffffffffffffffffffffffff1673ffffffffffffffffffffffffffffffffffffffff16815260200190815260200160002060000160009054906101000a900460ff1660028111156106ef57fe5b1415610709576000600281111561070257fe5b905061072c565b6001600281111561071657fe5b905061072c565b60028081111561072957fe5b90505b919050565b808073ffffffffffffffffffffffffffffffffffffffff163373ffffffffffffffffffffffffffffffffffffffff16141515156107fc576040517f08c379a00000000000000000000000000000000000000000000000000000000081526004018080602001828103825260298152602001807f61736b20736f6d65626f647920656c736520746f20706572666f726d2074686981526020017f7320616374696f6e2e000000000000000000000000000000000000000000000081525060400191505060405180910390fd5b33600115156000808373ffffffffffffffffffffffffffffffffffffffff1673ffffffffffffffffffffffffffffffffffffffff16815260200190815260200160002060030160009054906101000a900460ff1615151415156108ed576040517f08c379a000000000000000000000000000000000000000000000000000000000815260040180806020018281038252602f8152602001807f6e6f6e20726567697374657265642075736572206973206e6f7420616c6c6f7781526020017f656420746f20696e7465726163742e000000000000000000000000000000000081525060400191505060405180910390fd5b336001151561098a576040517f08c379a000000000000000000000000000000000000000000000000000000000815260040180806020018281038252602a8152602001807f6f6e6c792061646d696e6973747261746f7220697320616c6c6f77656420746f81526020017f20696e7465726163742e0000000000000000000000000000000000000000000081525060400191505060405180910390fd5b83600115156000808373ffffffffffffffffffffffffffffffffffffffff1673ffffffffffffffffffffffffffffffffffffffff16815260200190815260200160002060030160009054906101000a900460ff161515141515610a7b576040517f08c379a000000000000000000000000000000000000000000000000000000000815260040180806020018281038252602f8152602001807f6e6f6e20726567697374657265642075736572206973206e6f7420616c6c6f7781526020017f656420746f20696e7465726163742e000000000000000000000000000000000081525060400191505060405180910390fd5b8460011515610b18576040517f08c379a000000000000000000000000000000000000000000000000000000000815260040180806020018281038252602a8152602001807f6f6e6c792061646d696e6973747261746f7220697320616c6c6f77656420746f81526020017f20696e7465726163742e0000000000000000000000000000000000000000000081525060400191505060405180910390fd5b6001600354111515610bb8576040517f08c379a00000000000000000000000000000000000000000000000000000000081526004018080602001828103825260228152602001807f63616e206e6f742072656d6f7665206c6173742041646d696e6973747261746f81526020017f722e00000000000000000000000000000000000000000000000000000000000081525060400191505060405180910390fd5b610bc186611f2b565b600360008154809291906001900391905055507faa8331c9327dd1e1ed257df4bedbaf226bdda83c21484bbd6bba3317ae741e5f3387604051808373ffffffffffffffffffffffffffffffffffffffff1673ffffffffffffffffffffffffffffffffffffffff1681526020018273ffffffffffffffffffffffffffffffffffffffff1673ffffffffffffffffffffffffffffffffffffffff1681526020019250505060405180910390a1505050505050565b3360011515610d10576040517f08c379a000000000000000000000000000000000000000000000000000000000815260040180806020018281038252602a8152602001807f6f6e6c792061646d696e6973747261746f7220697320616c6c6f77656420746f81526020017f20696e7465726163742e0000000000000000000000000000000000000000000081525060400191505060405180910390fd5b81600115156000808373ffffffffffffffffffffffffffffffffffffffff1673ffffffffffffffffffffffffffffffffffffffff16815260200190815260200160002060030160009054906101000a900460ff16151514151515610e02576040517f08c379a000000000000000000000000000000000000000000000000000000000815260040180806020018281038252602b8152602001807f726567697374657265642075736572206973206e6f7420616c6c6f776564207481526020017f6f20696e7465726163742e00000000000000000000000000000000000000000081525060400191505060405180910390fd5b60016000808573ffffffffffffffffffffffffffffffffffffffff1673ffffffffffffffffffffffffffffffffffffffff16815260200190815260200160002060000160006101000a81548160ff02191690836002811115610e6057fe5b02179055506002546000808573ffffffffffffffffffffffffffffffffffffffff1673ffffffffffffffffffffffffffffffffffffffff1681526020019081526020016000206002018190555060016000808573ffffffffffffffffffffffffffffffffffffffff1673ffffffffffffffffffffffffffffffffffffffff16815260200190815260200160002060030160006101000a81548160ff02191690831515021790555060018390806001815401808255809150509060018203906000526020600020016000909192909190916101000a81548173ffffffffffffffffffffffffffffffffffffffff021916908373ffffffffffffffffffffffffffffffffffffffff160217905550506002600081548092919060010191905055507f68bc75405e77907637936f9fd22ace7745662ee0bc4286cc05b848155d236cba8384604051808373ffffffffffffffffffffffffffffffffffffffff1673ffffffffffffffffffffffffffffffffffffffff1681526020018273ffffffffffffffffffffffffffffffffffffffff1673ffffffffffffffffffffffffffffffffffffffff1681526020019250505060405180910390a1505050565b60018181548110151561102a57fe5b906000526020600020016000915054906101000a900473ffffffffffffffffffffffffffffffffffffffff1681565b60008060008473ffffffffffffffffffffffffffffffffffffffff1673ffffffffffffffffffffffffffffffffffffffff16815260200190815260200160002060030160009054906101000a900460ff16801561111957508160028111156110bd57fe5b6000808573ffffffffffffffffffffffffffffffffffffffff1673ffffffffffffffffffffffffffffffffffffffff16815260200190815260200160002060000160009054906101000a900460ff16600281111561111757fe5b145b905092915050565b60608060056006818054806020026020016040519081016040528092919081815260200182805480156111a957602002820191906000526020600020905b8160009054906101000a900473ffffffffffffffffffffffffffffffffffffffff1673ffffffffffffffffffffffffffffffffffffffff168152602001906001019080831161115f575b50505050509150808054806020026020016040519081016040528092919081815260200182805480156111ff57602002820191906000526020600020905b815460001916815260200190600101908083116111e7575b50505050509050915091509091565b33600115156000808373ffffffffffffffffffffffffffffffffffffffff1673ffffffffffffffffffffffffffffffffffffffff16815260200190815260200160002060030160009054906101000a900460ff1615151415156112ff576040517f08c379a000000000000000000000000000000000000000000000000000000000815260040180806020018281038252602f8152602001807f6e6f6e20726567697374657265642075736572206973206e6f7420616c6c6f7781526020017f656420746f20696e7465726163742e000000000000000000000000000000000081525060400191505060405180910390fd5b336001151561139c576040517f08c379a000000000000000000000000000000000000000000000000000000000815260040180806020018281038252602a8152602001807f6f6e6c792061646d696e6973747261746f7220697320616c6c6f77656420746f81526020017f20696e7465726163742e0000000000000000000000000000000000000000000081525060400191505060405180910390fd5b82600115156000808373ffffffffffffffffffffffffffffffffffffffff1673ffffffffffffffffffffffffffffffffffffffff16815260200190815260200160002060030160009054906101000a900460ff16151514151561148d576040517f08c379a000000000000000000000000000000000000000000000000000000000815260040180806020018281038252602f8152602001807f6e6f6e20726567697374657265642075736572206973206e6f7420616c6c6f7781526020017f656420746f20696e7465726163742e000000000000000000000000000000000081525060400191505060405180910390fd5b836001600281111561149b57fe5b6000808373ffffffffffffffffffffffffffffffffffffffff1673ffffffffffffffffffffffffffffffffffffffff16815260200190815260200160002060000160009054906101000a900460ff1660028111156114f557fe5b141515611590576040517f08c379a000000000000000000000000000000000000000000000000000000000815260040180806020018281038252602f8152602001807f6f6e6c7920417070726f76656453746f72654f776e657220697320616c6c6f7781526020017f656420746f20696e7465726163742e000000000000000000000000000000000081525060400191505060405180910390fd5b61159985611f2b565b7f621a2b328773914018c58953c2dd68f00876c44236383be17ce0051a6258baa13386604051808373ffffffffffffffffffffffffffffffffffffffff1673ffffffffffffffffffffffffffffffffffffffff1681526020018273ffffffffffffffffffffffffffffffffffffffff1673ffffffffffffffffffffffffffffffffffffffff1681526020019250505060405180910390a15050505050565b33600115156116d4576040517f08c379a000000000000000000000000000000000000000000000000000000000815260040180806020018281038252602a8152602001807f6f6e6c792061646d696e6973747261746f7220697320616c6c6f77656420746f81526020017f20696e7465726163742e0000000000000000000000000000000000000000000081525060400191505060405180910390fd5b81600115156000808373ffffffffffffffffffffffffffffffffffffffff1673ffffffffffffffffffffffffffffffffffffffff16815260200190815260200160002060030160009054906101000a900460ff161515141515156117c6576040517f08c379a000000000000000000000000000000000000000000000000000000000815260040180806020018281038252602b8152602001807f726567697374657265642075736572206973206e6f7420616c6c6f776564207481526020017f6f20696e7465726163742e00000000000000000000000000000000000000000081525060400191505060405180910390fd5b60008060008573ffffffffffffffffffffffffffffffffffffffff1673ffffffffffffffffffffffffffffffffffffffff16815260200190815260200160002060000160006101000a81548160ff0219169083600281111561182457fe5b02179055506002546000808573ffffffffffffffffffffffffffffffffffffffff1673ffffffffffffffffffffffffffffffffffffffff1681526020019081526020016000206002018190555060016000808573ffffffffffffffffffffffffffffffffffffffff1673ffffffffffffffffffffffffffffffffffffffff16815260200190815260200160002060030160006101000a81548160ff02191690831515021790555060018390806001815401808255809150509060018203906000526020600020016000909192909190916101000a81548173ffffffffffffffffffffffffffffffffffffffff021916908373ffffffffffffffffffffffffffffffffffffffff160217905550506003600081548092919060010191905055506002600081548092919060010191905055507ffaee0269330752c7a43c8c1bfb334358e99a8ba5efb07a56b419ae8bdd279fa98384604051808373ffffffffffffffffffffffffffffffffffffffff1673ffffffffffffffffffffffffffffffffffffffff1681526020018273ffffffffffffffffffffffffffffffffffffffff1673ffffffffffffffffffffffffffffffffffffffff1681526020019250505060405180910390a1505050565b6000803273ffffffffffffffffffffffffffffffffffffffff163373ffffffffffffffffffffffffffffffffffffffff16141515611abd576040517f08c379a00000000000000000000000000000000000000000000000000000000081526004018080602001828103825260268152602001807f636f6e74726163747320617265206e6f7420616c6c6f77656420746f20696e7481526020017f65726163742e000000000000000000000000000000000000000000000000000081525060400191505060405180910390fd5b3360016002811115611acb57fe5b6000808373ffffffffffffffffffffffffffffffffffffffff1673ffffffffffffffffffffffffffffffffffffffff16815260200190815260200160002060000160009054906101000a900460ff166002811115611b2557fe5b141515611bc0576040517f08c379a000000000000000000000000000000000000000000000000000000000815260040180806020018281038252602f8152602001807f6f6e6c7920417070726f76656453746f72654f776e657220697320616c6c6f7781526020017f656420746f20696e7465726163742e000000000000000000000000000000000081525060400191505060405180910390fd5b3384611bca61202c565b808373ffffffffffffffffffffffffffffffffffffffff1673ffffffffffffffffffffffffffffffffffffffff168152602001826000191660001916815260200192505050604051809103906000f080158015611c2b573d6000803e3d6000fd5b50915083600460008473ffffffffffffffffffffffffffffffffffffffff1673ffffffffffffffffffffffffffffffffffffffff16815260200190815260200160002060000181600019169055506001600460008473ffffffffffffffffffffffffffffffffffffffff1673ffffffffffffffffffffffffffffffffffffffff16815260200190815260200160002060020160006101000a81548160ff021916908315150217905550600854600460008473ffffffffffffffffffffffffffffffffffffffff1673ffffffffffffffffffffffffffffffffffffffff1681526020019081526020016000206001018190555060058290806001815401808255809150509060018203906000526020600020016000909192909190916101000a81548173ffffffffffffffffffffffffffffffffffffffff021916908373ffffffffffffffffffffffffffffffffffffffff1602179055505060068490806001815401808255809150509060018203906000526020600020016000909192909190915090600019169055506008600081548092919060010191905055507fbf06c564c82406a7c8b7a90d28786530f8705bf8f9bcbde326223748f26112e03383604051808373ffffffffffffffffffffffffffffffffffffffff1673ffffffffffffffffffffffffffffffffffffffff1681526020018273ffffffffffffffffffffffffffffffffffffffff1673ffffffffffffffffffffffffffffffffffffffff1681526020019250505060405180910390a18192505050919050565b6000600854905090565b60006020528060005260406000206000915090508060000160009054906101000a900460ff16908060020154908060030160009054906101000a900460ff16905083565b600581815481101515611ec557fe5b906000526020600020016000915054906101000a900473ffffffffffffffffffffffffffffffffffffffff1681565b60046020528060005260406000206000915090508060000154908060010154908060020160009054906101000a900460ff16905083565b60016000808373ffffffffffffffffffffffffffffffffffffffff1673ffffffffffffffffffffffffffffffffffffffff16815260200190815260200160002060020154815481101515611f7b57fe5b9060005260206000200160006101000a81549073ffffffffffffffffffffffffffffffffffffffff02191690556000808273ffffffffffffffffffffffffffffffffffffffff1673ffffffffffffffffffffffffffffffffffffffff168152602001908152602001600020600080820160006101000a81549060ff021916905560018201600061200b919061203c565b60028201600090556003820160006101000a81549060ff0219169055505050565b604051610d68806120a483390190565b508054600082556003029060005260206000209081019061205d9190612060565b50565b6120a091905b8082111561209c5760008082016000905560018201600090556002820160006101000a81549060ff021916905550600301612066565b5090565b90560060806040526000600155600060075534801561001a57600080fd5b50604051604080610d688339810180604052810190808051906020019092919080519060200190929190505050816000806101000a81548173ffffffffffffffffffffffffffffffffffffffff021916908373ffffffffffffffffffffffffffffffffffffffff160217905550806002816000191690555080600281600019169055507ffc823e830d9b24db06997c3fc70e7e94abbdfebfaad33b6e911ca347118e77f6600254336040518083600019166000191681526020018273ffffffffffffffffffffffffffffffffffffffff1673ffffffffffffffffffffffffffffffffffffffff1681526020019250505060405180910390a15050610c45806101236000396000f3006080604052600436106100e6576000357c0100000000000000000000000000000000000000000000000000000000900463ffffffff16806332e43a11146100f85780633d98de2b146101235780635034735d1461014e57806354efe54c1461017957806357b57f39146101b45780635ee95cae1461024f5780636ce114a01461027c57806379cd4921146102e35780637acc0b201461031a57806382367b2d146103875780638546d002146103be5780638da5cb5b14610403578063b41db7cc1461045a578063b56a9f2c14610485578063b9db15b4146104b0578063f2663f1814610516575b3480156100f257600080fd5b50600080fd5b34801561010457600080fd5b5061010d610549565b6040518082815260200191505060405180910390f35b34801561012f57600080fd5b50610138610552565b6040518082815260200191505060405180910390f35b34801561015a57600080fd5b506101636105c5565b6040518082815260200191505060405180910390f35b34801561018557600080fd5b506101b26004803603810190808035906020019092919080356000191690602001909291905050506105cb565b005b3480156101c057600080fd5b50610235600480360381019080803590602001909291908035600019169060200190929190803560001916906020019092919080359060200190929190803590602001909291908035600019169060200190929190803560001916906020019092919080359060200190929190505050610673565b604051808215151515815260200191505060405180910390f35b34801561025b57600080fd5b5061027a600480360381019080803590602001909291905050506106c8565b005b34801561028857600080fd5b506102cd6004803603810190808035600019169060200190929190803590602001909291908035600019169060200190929190803590602001909291905050506107b2565b6040518082815260200191505060405180910390f35b3480156102ef57600080fd5b506103186004803603810190808035906020019092919080359060200190929190505050610913565b005b34801561032657600080fd5b50610345600480360381019080803590602001909291905050506109a7565b60405180868152602001856000191660001916815260200184815260200183600019166000191681526020018281526020019550505050505060405180910390f35b34801561039357600080fd5b506103bc60048036038101908080359060200190929190803590602001909291905050506109dd565b005b3480156103ca57600080fd5b506103e960048036038101908080359060200190929190505050610a71565b604051808215151515815260200191505060405180910390f35b34801561040f57600080fd5b50610418610aa4565b604051808273ffffffffffffffffffffffffffffffffffffffff1673ffffffffffffffffffffffffffffffffffffffff16815260200191505060405180910390f35b34801561046657600080fd5b5061046f610ac9565b6040518082815260200191505060405180910390f35b34801561049157600080fd5b5061049a610ae5565b6040518082815260200191505060405180910390f35b3480156104bc57600080fd5b506104db60048036038101908080359060200190929190505050610aee565b604051808560001916600019168152602001848152602001836000191660001916815260200182815260200194505050505060405180910390f35b34801561052257600080fd5b5061052b610bc4565b60405180826000191660001916815260200191505060405180910390f35b6000602a905090565b6000806000915060009050600090505b6008805490508110156105be576001151560088281548110151561058257fe5b90600052602060002090602091828204019190069054906101000a900460ff16151514156105b1576001820191505b8080600101915050610562565b8191505090565b60075481565b600060066000848152602001908152602001600020600301549050816006600085815260200190815260200160002060030181600019169055507f356e78864449a256f9399f13693c18c5f513081b92062c5b034f3778a37e449b6002548483856040518085600019166000191681526020018481526020018360001916600019168152602001826000191660001916815260200194505050505060405180910390a1505050565b6000848914801561068b575083600019168860001916145b801561069e575082600019168760001916145b80156106a957508186145b156106b757600190506106bc565b600090505b98975050505050505050565b7f98122b1e0757cd821a8c85bc29e3e3c3cea0fef9b3d567819d6ff8acf369dbb86002548260066000858152602001908152602001600020600101546040518084600019166000191681526020018381526020018260001916600019168152602001935050505060405180910390a16006600082815260200190815260200160002060008082016000905560018201600090556002820160009055600382016000905560048201600090555050600060088281548110151561078657fe5b90600052602060002090602091828204019190066101000a81548160ff02191690831515021790555050565b6000806107bd610be3565b60075491508681602001906000191690816000191681525050858160400181815250508481606001906000191690816000191681525050838160800181815250508060066000848152602001908152602001600020600082015181600001556020820151816001019060001916905560408201518160020155606082015181600301906000191690556080820151816004015590505060086001908060018154018082558091505090600182039060005260206000209060209182820401919006909192909190916101000a81548160ff021916908315150217905550506007600081548092919060010191905055507f823653c27be00a13fd133babbab43a3415d2317616330199f263fcd60509788b60025483896040518084600019166000191681526020018381526020018260001916600019168152602001935050505060405180910390a18192505050949350505050565b6000600660008481526020019081526020016000206002015490508160066000858152602001908152602001600020600201819055507f6cb1a1a1eb9375f0e9e5174efe1b054994a9277bfaeb70eb010bbda4a2a410b660025484838560405180856000191660001916815260200184815260200183815260200182815260200194505050505060405180910390a1505050565b60066020528060005260406000206000915090508060000154908060010154908060020154908060030154908060040154905085565b6000600660008481526020019081526020016000206004015490508160066000858152602001908152602001600020600401819055507f69747595fc0a45519da9323157a93da485808aba05c576659627ed498ff73a2960025484838560405180856000191660001916815260200184815260200183815260200182815260200194505050505060405180910390a1505050565b600881815481101515610a8057fe5b9060005260206000209060209182820401919006915054906101000a900460ff1681565b6000809054906101000a900473ffffffffffffffffffffffffffffffffffffffff1681565b6000610ae06005600a610bca90919063ffffffff16565b905090565b60006002905090565b600080600080610afc610be3565b60011515600887815481101515610b0f57fe5b90600052602060002090602091828204019190069054906101000a900460ff161515141515610b3d57600080fd5b6006600087815260200190815260200160002060a060405190810160405290816000820154815260200160018201546000191660001916815260200160028201548152602001600382015460001916600019168152602001600482015481525050905080602001518160400151826060015183608001519450945094509450509193509193565b60025481565b6000828211151515610bd857fe5b818303905092915050565b60a060405190810160405280600081526020016000801916815260200160008152602001600080191681526020016000815250905600a165627a7a7230582004707ba6da269011d66bf2641440647631827799942e7efce80ac22882a204290029a165627a7a72305820cf5c83cda1e94cf7435462336cc5777cc9d76deefc033af420c634ae20dd14810029",
  "source": "pragma solidity ^0.4.24;\n\nimport \"./StoreLogic.sol\";\n\ncontract MarketplaceLogic {\n//    administrators of marketplace\n//          >>Mapping of adminitrators of the Marketplace\n//          >>Array of admini\n//          mkt / manage administrator add/remove\n//          mkt / given address is administrator ?\n//          mkt / manage approved store owner add/remove (if rem -> del store)\n//          mkt / given address is approved store owner\n//          >>Mapping of approved store owner (rebuild)\n//          >>Array of approved owner\n//          >>Mapping of approved store owner >> mapping vers stores (for each)\n//          >>Array of stores\n//                    (rebuild each time a store is created/del)\n//                    delete storel array, then iteration sur approved store own\n//         /////// >>Array of store owner\n//         /////// >>Array of store for each approved store owner\n//          >>On a le max store index, par iteration manuel, on rcup sto adres\n//          >>Mapping stores (uint vers store dont address)\n//\n//    approved store owner\n//          mkt / can create stores\n//          sto / can add/remove products\n//          sto / can change product price\n//          sto / can withdraw funds\n//    Shopper\n//          >>list of stores\n//          mkt / browse Storefront and select one\n//          sto / see product page for a given Storefront (including price, quantity)\n//          sto / purchase a product (hence debit customer account, update quantity in the store)\n//\n\n    mapping (address => User) public Users;\n    address [] public iterUsers;\n    uint256 nUsers = 0;\n    uint256 nAdmin = 0; //number of admin for the marketplace\n\n    mapping (address => Store) public Stores;\n    address [] public iterStores;\n    bytes32 [] public storeNames;\n    uint256 idxIterStores = 0;\n    uint256 nStores = 0;\n\n    struct User {\n      RoleChoices role;\n      Store [] stores;\n      uint256 idxIterUsers;\n      bool isValue;\n    }\n\n    struct Store {\n      bytes32 name;\n      uint256 idxIterStores;\n      bool isValue;\n    }\n\n    enum RoleChoices { Administrator, ApprovedStoreOwner, Shopper}\n\n    /* Modifiers */\n    modifier isNotAContract(){\n    require (\n      msg.sender == tx.origin,\n      \"contracts are not allowed to interact.\");\n    _;\n    }\n\n    modifier isRegistered(address req)\n    {\n      require (Users[req].isValue == true,\n        \"non registered user is not allowed to interact.\");\n      _;\n    }\n    modifier isNotRegistered(address req)\n    {\n      require (\n        Users[req].isValue != true,\n        \"registered user is not allowed to interact.\");\n      _;\n    }\n    modifier isAdministrator(address req)\n    {\n      require (\n        /*uint256(Users[req].role) == uint256(RoleChoices.Administrator)*/true,\n      \"only administrator is allowed to interact.\");\n      _;\n    }\n    modifier isNotAdministrator(address req)\n    {\n      require (Users[req].role != RoleChoices.Administrator,\n      \"administrator is not allowed to interact.\");\n      _;\n    }\n    modifier isApprovedStoreOwner(address req)\n    {\n      require (uint256(Users[req].role) == uint256(RoleChoices.ApprovedStoreOwner),\n        \"only ApprovedStoreOwner is allowed to interact.\");\n      _;\n    }\n    modifier isNotApprovedStoreOwner(address req)\n    {\n      require (uint256(Users[req].role) != uint256(RoleChoices.ApprovedStoreOwner),\n        \"approvedStoreOwner is not allowed to interact.\");\n      _;\n    }\n    modifier notForMyself(address req)\n    {\n      require (msg.sender != req,\n        \"ask somebody else to perform this action.\");\n      _;\n    }\n    modifier atLeast1Admin()\n    {\n      require (nAdmin > 1,\n        \"can not remove last Administrator.\");\n      _;\n    }\n    // Events - publicize actions to external listeners\n    event LogNewMarketplace(address _req);\n    event LogAdminAdded(address _req, address _user);\n    event LogAdminDeleted(address _req, address _user);\n    event LogApprStoreOwnerAdded(address _req, address _user );\n    event LogApprStoreOWnerDeleted(address _req, address _user);\n    event LogNewStore(address _req, address _store);\n    event LogStoreDeleted(address _req, address _store);\n\n    event myLog (string myString, address myAddress);\n\n    constructor()\n    public\n    isNotAContract()\n    {\n      Users[msg.sender].role = RoleChoices.Administrator;\n      Users[msg.sender].idxIterUsers = nUsers;\n      Users[msg.sender].isValue = true;\n      iterUsers.push(msg.sender);\n      nAdmin++;\n      nUsers++;\n      emit LogNewMarketplace(msg.sender);\n      emit LogAdminAdded(msg.sender, tx.origin);\n    }\n\n    function addAdmin (address user)\n    public\n    isAdministrator (msg.sender)\n    isNotRegistered (user)\n    {\n      Users[user].role = RoleChoices.Administrator;\n      Users[user].idxIterUsers = nUsers;\n      Users[user].isValue = true;\n      iterUsers.push(user);\n      nAdmin++;\n      nUsers++;\n      emit LogAdminAdded(user, user);\n    }\n\n    function deleteAdmin (address user)\n    public\n    notForMyself(user)\n    isRegistered (msg.sender)\n    isAdministrator (msg.sender)\n    isRegistered (user)\n    isAdministrator (user)\n    atLeast1Admin ()\n    {\n      deleteUser (user);\n      nAdmin--;\n      //nUsers--; //we never remove, because used like index for iterUsers\n      emit LogAdminDeleted(msg.sender, user);\n    }\n\n    function addAprovedStoreOwner (address user)\n    isAdministrator (msg.sender)\n    isNotRegistered (user)\n    public\n    {\n      Users[user].role = RoleChoices.ApprovedStoreOwner;\n      Users[user].idxIterUsers = nUsers;\n      Users[user].isValue = true;\n      iterUsers.push(user);\n      nUsers++;\n      emit LogApprStoreOwnerAdded(user, user);\n    }\n\n    function deleteApprovedStoredOwner (address user)\n    isRegistered (msg.sender)\n    isAdministrator (msg.sender)\n    isRegistered (user)\n    isApprovedStoreOwner (user)\n    public\n    {\n      deleteUser(user);\n      emit LogApprStoreOWnerDeleted(msg.sender, user);\n    }\n\n    function deleteUser (address user)\n    internal\n    {\n      delete iterUsers[Users[user].idxIterUsers];\n      delete Users[user];\n      //nUsers--; No because it is used with index\n    }\n\n    function getUserRole(address user)\n    public\n    view\n    returns (uint256)\n    {\n      if(Users[user].isValue == true){\n        if(uint256(Users[user].role) == uint256(RoleChoices.Administrator)){\n          return (uint256(RoleChoices.Administrator));\n        } else {\n          return (uint256(RoleChoices.ApprovedStoreOwner));\n        }\n      }\n      else{\n        return (uint256(RoleChoices.Shopper));\n      }\n\n    }\n\n    function userExists (address user, RoleChoices role)\n    public\n    view\n    returns(bool)\n    {\n      return (Users[user].isValue && (Users[user].role == role));\n          //vrifier la mcanique gnrale dans les tests\n          // Users[user].isValue\n          // (iterUsers[Users[user].idxIterUsers] == user)\n    }\n\n    function getStoresNum ()\n    public\n    view\n    returns(uint)\n    {\n      return (nStores);\n    }\n\n    function getStores ()\n    public\n    view\n    returns (address [], bytes32[])\n    {\n      return(iterStores, storeNames);\n    }\n\n    function createStore(bytes32 name)\n    public\n    isNotAContract()\n    isApprovedStoreOwner(msg.sender)\n    returns (address)\n    {\n      address storeAddress = new StoreLogic(msg.sender, name);\n\n      Stores[storeAddress].name = name;\n      Stores[storeAddress].isValue = true;\n      Stores[storeAddress].idxIterStores = nStores;\n      iterStores.push(storeAddress);\n      storeNames.push(name);\n      nStores++;\n      emit LogNewStore(msg.sender, storeAddress);\n      return storeAddress;\n    }\n\n    //TBD RAF delete store\n\n    // Fallback function - Called if other functions don't match call or\n    // sent ether without data\n    // Typically, called when invalid data is sent\n    // Added so ether sent to this contract is reverted if the contract fails\n    // otherwise, the sender's money is transferred to contract\n    function () public {\n      revert();\n    }\n}\n\n/*\nmapping (address => Store) public Stores;\naddress [] public iterStores;\nuint256 idxIterStores = 0;\nuint256 nStores = 0;\n\nUsers[msg.sender].role = RoleChoices.Administrator;\nUsers[msg.sender].isValue = true;\niterUsers.push(msg.sender);\nnAdmin++;\nnUsers++;\nemit LogAdminAdded(msg.sender, user);\n*/\n",
  "sourcePath": "/Users/MikaelKais/Desktop/Consensys/projects/Marketplace/contracts/MarketplaceLogic.sol",
  "compiler": {
    "name": "solc",
    "version": "0.4.24+commit.e67f0147.Emscripten.clang"
  },
  "schemaVersion": "2.0.1",
  "updatedAt": "2018-08-19T12:49:25.746Z"
}