{
  "contractName": "Store",
  "abi": [
    {
      "constant": true,
      "inputs": [],
      "name": "dummy",
      "outputs": [
        {
          "name": "",
          "type": "uint256"
        }
      ],
      "payable": false,
      "stateMutability": "pure",
      "type": "function"
    },
    {
      "constant": true,
      "inputs": [],
      "name": "nProductsForSale",
      "outputs": [
        {
          "name": "n",
          "type": "uint256"
        }
      ],
      "payable": false,
      "stateMutability": "view",
      "type": "function"
    },
    {
      "constant": false,
      "inputs": [],
      "name": "unpause",
      "outputs": [],
      "payable": false,
      "stateMutability": "nonpayable",
      "type": "function"
    },
    {
      "constant": true,
      "inputs": [],
      "name": "productNumber",
      "outputs": [
        {
          "name": "",
          "type": "uint256"
        }
      ],
      "payable": false,
      "stateMutability": "view",
      "type": "function"
    },
    {
      "constant": true,
      "inputs": [
        {
          "name": "_id1",
          "type": "uint256"
        },
        {
          "name": "_name1",
          "type": "bytes32"
        },
        {
          "name": "_description1",
          "type": "bytes32"
        },
        {
          "name": "_price1",
          "type": "uint256"
        },
        {
          "name": "_id2",
          "type": "uint256"
        },
        {
          "name": "_name2",
          "type": "bytes32"
        },
        {
          "name": "_description2",
          "type": "bytes32"
        },
        {
          "name": "_price2",
          "type": "uint256"
        }
      ],
      "name": "identicalProduct",
      "outputs": [
        {
          "name": "isIdentical",
          "type": "bool"
        }
      ],
      "payable": false,
      "stateMutability": "pure",
      "type": "function"
    },
    {
      "constant": true,
      "inputs": [],
      "name": "paused",
      "outputs": [
        {
          "name": "",
          "type": "bool"
        }
      ],
      "payable": false,
      "stateMutability": "view",
      "type": "function"
    },
    {
      "constant": false,
      "inputs": [],
      "name": "renounceOwnership",
      "outputs": [],
      "payable": false,
      "stateMutability": "nonpayable",
      "type": "function"
    },
    {
      "constant": true,
      "inputs": [
        {
          "name": "",
          "type": "uint256"
        }
      ],
      "name": "products",
      "outputs": [
        {
          "name": "id",
          "type": "uint256"
        },
        {
          "name": "name",
          "type": "bytes32"
        },
        {
          "name": "quantity",
          "type": "uint256"
        },
        {
          "name": "description",
          "type": "bytes32"
        },
        {
          "name": "price",
          "type": "uint256"
        }
      ],
      "payable": false,
      "stateMutability": "view",
      "type": "function"
    },
    {
      "constant": false,
      "inputs": [],
      "name": "destroy",
      "outputs": [],
      "payable": false,
      "stateMutability": "nonpayable",
      "type": "function"
    },
    {
      "constant": false,
      "inputs": [],
      "name": "pause",
      "outputs": [],
      "payable": false,
      "stateMutability": "nonpayable",
      "type": "function"
    },
    {
      "constant": true,
      "inputs": [
        {
          "name": "",
          "type": "uint256"
        }
      ],
      "name": "isForSale",
      "outputs": [
        {
          "name": "",
          "type": "bool"
        }
      ],
      "payable": false,
      "stateMutability": "view",
      "type": "function"
    },
    {
      "constant": true,
      "inputs": [],
      "name": "owner",
      "outputs": [
        {
          "name": "",
          "type": "address"
        }
      ],
      "payable": false,
      "stateMutability": "view",
      "type": "function"
    },
    {
      "constant": true,
      "inputs": [],
      "name": "useSub",
      "outputs": [
        {
          "name": "",
          "type": "uint256"
        }
      ],
      "payable": false,
      "stateMutability": "pure",
      "type": "function"
    },
    {
      "constant": true,
      "inputs": [],
      "name": "heartBeat",
      "outputs": [
        {
          "name": "",
          "type": "uint256"
        }
      ],
      "payable": false,
      "stateMutability": "pure",
      "type": "function"
    },
    {
      "constant": true,
      "inputs": [
        {
          "name": "id",
          "type": "uint256"
        }
      ],
      "name": "getProduct",
      "outputs": [
        {
          "name": "name",
          "type": "bytes32"
        },
        {
          "name": "quantity",
          "type": "uint256"
        },
        {
          "name": "description",
          "type": "bytes32"
        },
        {
          "name": "price",
          "type": "uint256"
        }
      ],
      "payable": false,
      "stateMutability": "view",
      "type": "function"
    },
    {
      "constant": true,
      "inputs": [
        {
          "name": "_dest",
          "type": "address"
        }
      ],
      "name": "payments",
      "outputs": [
        {
          "name": "",
          "type": "uint256"
        }
      ],
      "payable": false,
      "stateMutability": "view",
      "type": "function"
    },
    {
      "constant": true,
      "inputs": [],
      "name": "store_name",
      "outputs": [
        {
          "name": "",
          "type": "bytes32"
        }
      ],
      "payable": false,
      "stateMutability": "view",
      "type": "function"
    },
    {
      "constant": false,
      "inputs": [
        {
          "name": "_newOwner",
          "type": "address"
        }
      ],
      "name": "transferOwnership",
      "outputs": [],
      "payable": false,
      "stateMutability": "nonpayable",
      "type": "function"
    },
    {
      "constant": false,
      "inputs": [
        {
          "name": "_recipient",
          "type": "address"
        }
      ],
      "name": "destroyAndSend",
      "outputs": [],
      "payable": false,
      "stateMutability": "nonpayable",
      "type": "function"
    },
    {
      "inputs": [
        {
          "name": "_owner",
          "type": "address"
        },
        {
          "name": "_name",
          "type": "bytes32"
        }
      ],
      "payable": false,
      "stateMutability": "nonpayable",
      "type": "constructor"
    },
    {
      "payable": false,
      "stateMutability": "nonpayable",
      "type": "fallback"
    },
    {
      "anonymous": false,
      "inputs": [
        {
          "indexed": false,
          "name": "storeName",
          "type": "bytes32"
        },
        {
          "indexed": false,
          "name": "byAddress",
          "type": "address"
        }
      ],
      "name": "LogCreate",
      "type": "event"
    },
    {
      "anonymous": false,
      "inputs": [
        {
          "indexed": false,
          "name": "storeName",
          "type": "bytes32"
        },
        {
          "indexed": false,
          "name": "byAddress",
          "type": "address"
        }
      ],
      "name": "LogDelete",
      "type": "event"
    },
    {
      "anonymous": false,
      "inputs": [
        {
          "indexed": false,
          "name": "storeName",
          "type": "bytes32"
        },
        {
          "indexed": false,
          "name": "id",
          "type": "uint256"
        },
        {
          "indexed": false,
          "name": "name",
          "type": "bytes32"
        }
      ],
      "name": "LogAddProduct",
      "type": "event"
    },
    {
      "anonymous": false,
      "inputs": [
        {
          "indexed": false,
          "name": "storeName",
          "type": "bytes32"
        },
        {
          "indexed": false,
          "name": "id",
          "type": "uint256"
        },
        {
          "indexed": false,
          "name": "name",
          "type": "bytes32"
        }
      ],
      "name": "LogRemoveProduct",
      "type": "event"
    },
    {
      "anonymous": false,
      "inputs": [
        {
          "indexed": false,
          "name": "storeName",
          "type": "bytes32"
        },
        {
          "indexed": false,
          "name": "id",
          "type": "uint256"
        },
        {
          "indexed": false,
          "name": "oldPrice",
          "type": "uint256"
        },
        {
          "indexed": false,
          "name": "newPrice",
          "type": "uint256"
        }
      ],
      "name": "LogUpdatePrice",
      "type": "event"
    },
    {
      "anonymous": false,
      "inputs": [
        {
          "indexed": false,
          "name": "storeName",
          "type": "bytes32"
        },
        {
          "indexed": false,
          "name": "id",
          "type": "uint256"
        },
        {
          "indexed": false,
          "name": "oldQuantity",
          "type": "uint256"
        },
        {
          "indexed": false,
          "name": "newQuantity",
          "type": "uint256"
        }
      ],
      "name": "LogUpdateQuantity",
      "type": "event"
    },
    {
      "anonymous": false,
      "inputs": [
        {
          "indexed": false,
          "name": "storeName",
          "type": "bytes32"
        },
        {
          "indexed": false,
          "name": "id",
          "type": "uint256"
        },
        {
          "indexed": false,
          "name": "oldDescription",
          "type": "bytes32"
        },
        {
          "indexed": false,
          "name": "newDescription",
          "type": "bytes32"
        }
      ],
      "name": "LogUpdateDescription",
      "type": "event"
    },
    {
      "anonymous": false,
      "inputs": [
        {
          "indexed": false,
          "name": "id",
          "type": "uint256"
        },
        {
          "indexed": false,
          "name": "quantity",
          "type": "uint256"
        },
        {
          "indexed": false,
          "name": "totalPrice",
          "type": "uint256"
        },
        {
          "indexed": false,
          "name": "customerAddress",
          "type": "address"
        }
      ],
      "name": "LogPurchaseProduct",
      "type": "event"
    },
    {
      "anonymous": false,
      "inputs": [],
      "name": "Pause",
      "type": "event"
    },
    {
      "anonymous": false,
      "inputs": [],
      "name": "Unpause",
      "type": "event"
    },
    {
      "anonymous": false,
      "inputs": [
        {
          "indexed": true,
          "name": "previousOwner",
          "type": "address"
        }
      ],
      "name": "OwnershipRenounced",
      "type": "event"
    },
    {
      "anonymous": false,
      "inputs": [
        {
          "indexed": true,
          "name": "previousOwner",
          "type": "address"
        },
        {
          "indexed": true,
          "name": "newOwner",
          "type": "address"
        }
      ],
      "name": "OwnershipTransferred",
      "type": "event"
    },
    {
      "constant": true,
      "inputs": [],
      "name": "heartBeatPausable",
      "outputs": [
        {
          "name": "",
          "type": "uint256"
        }
      ],
      "payable": false,
      "stateMutability": "view",
      "type": "function"
    },
    {
      "constant": true,
      "inputs": [],
      "name": "heartBeatOnlyOwner",
      "outputs": [
        {
          "name": "",
          "type": "uint256"
        }
      ],
      "payable": false,
      "stateMutability": "view",
      "type": "function"
    },
    {
      "constant": false,
      "inputs": [],
      "name": "withdrawPayments",
      "outputs": [],
      "payable": false,
      "stateMutability": "nonpayable",
      "type": "function"
    },
    {
      "constant": false,
      "inputs": [
        {
          "name": "id",
          "type": "uint256"
        },
        {
          "name": "quantity",
          "type": "uint256"
        }
      ],
      "name": "purchaseProduct",
      "outputs": [],
      "payable": true,
      "stateMutability": "payable",
      "type": "function"
    },
    {
      "constant": false,
      "inputs": [
        {
          "name": "id",
          "type": "uint256"
        }
      ],
      "name": "removeProduct",
      "outputs": [],
      "payable": false,
      "stateMutability": "nonpayable",
      "type": "function"
    },
    {
      "constant": false,
      "inputs": [
        {
          "name": "_name",
          "type": "bytes32"
        },
        {
          "name": "_quantity",
          "type": "uint256"
        },
        {
          "name": "_description",
          "type": "bytes32"
        },
        {
          "name": "_price",
          "type": "uint256"
        }
      ],
      "name": "addProduct",
      "outputs": [
        {
          "name": "",
          "type": "uint256"
        }
      ],
      "payable": false,
      "stateMutability": "nonpayable",
      "type": "function"
    },
    {
      "constant": false,
      "inputs": [
        {
          "name": "id",
          "type": "uint256"
        },
        {
          "name": "_price",
          "type": "uint256"
        }
      ],
      "name": "updatePrice",
      "outputs": [],
      "payable": false,
      "stateMutability": "nonpayable",
      "type": "function"
    },
    {
      "constant": false,
      "inputs": [
        {
          "name": "id",
          "type": "uint256"
        },
        {
          "name": "_quantity",
          "type": "uint256"
        }
      ],
      "name": "updateQuantity",
      "outputs": [],
      "payable": false,
      "stateMutability": "nonpayable",
      "type": "function"
    },
    {
      "constant": false,
      "inputs": [
        {
          "name": "id",
          "type": "uint256"
        },
        {
          "name": "_description",
          "type": "bytes32"
        }
      ],
      "name": "updateDescription",
      "outputs": [],
      "payable": false,
      "stateMutability": "nonpayable",
      "type": "function"
    },
    {
      "constant": true,
      "inputs": [
        {
          "name": "id",
          "type": "uint256"
        }
      ],
      "name": "productIsForSale",
      "outputs": [
        {
          "name": "",
          "type": "bool"
        }
      ],
      "payable": false,
      "stateMutability": "view",
      "type": "function"
    }
  ],
  "bytecode": "0x608060405260008060146101000a81548160ff0219169083151502179055506000600355600060095534801561003457600080fd5b506040516040806126b583398101806040528101908080519060200190929190805190602001909291905050508181336000806101000a81548173ffffffffffffffffffffffffffffffffffffffff021916908373ffffffffffffffffffffffffffffffffffffffff1602179055506100ab6101dd565b604051809103906000f0801580156100c7573d6000803e3d6000fd5b50600160006101000a81548173ffffffffffffffffffffffffffffffffffffffff021916908373ffffffffffffffffffffffffffffffffffffffff16021790555081600260006101000a81548173ffffffffffffffffffffffffffffffffffffffff021916908373ffffffffffffffffffffffffffffffffffffffff160217905550806004816000191690555080600481600019169055507ffc823e830d9b24db06997c3fc70e7e94abbdfebfaad33b6e911ca347118e77f6600454336040518083600019166000191681526020018273ffffffffffffffffffffffffffffffffffffffff1673ffffffffffffffffffffffffffffffffffffffff1681526020019250505060405180910390a1505050506101ed565b60405161085180611e6483390190565b611c68806101fc6000396000f300608060405260043610610175576000357c0100000000000000000000000000000000000000000000000000000000900463ffffffff16806332e43a11146101875780633d98de2b146101b25780633f4ba83a146101dd5780635034735d146101f457806354efe54c1461021f57806357b57f391461025a5780635c975abb146102f55780635ee95cae146103245780636103d70b1461035157806362c3c58a146103685780636ce114a014610393578063715018a6146103fa57806379cd4921146104115780637acc0b201461044857806382367b2d146104b557806383197ef0146104ec5780638456cb59146105035780638546d0021461051a5780638da5cb5b1461055f578063a0440426146105b6578063afbed9eb146105e0578063b41db7cc1461060b578063b56a9f2c14610636578063b9db15b414610661578063ca0f873b146106c7578063e2982c211461070c578063f2663f1814610763578063f2fde38b14610796578063f5074f41146107d9575b34801561018157600080fd5b50600080fd5b34801561019357600080fd5b5061019c61081c565b6040518082815260200191505060405180910390f35b3480156101be57600080fd5b506101c7610825565b6040518082815260200191505060405180910390f35b3480156101e957600080fd5b506101f2610898565b005b34801561020057600080fd5b50610209610956565b6040518082815260200191505060405180910390f35b34801561022b57600080fd5b5061025860048036038101908080359060200190929190803560001916906020019092919050505061095c565b005b34801561026657600080fd5b506102db6004803603810190808035906020019092919080356000191690602001909291908035600019169060200190929190803590602001909291908035906020019092919080356000191690602001909291908035600019169060200190929190803590602001909291905050506109e1565b604051808215151515815260200191505060405180910390f35b34801561030157600080fd5b5061030a610a36565b604051808215151515815260200191505060405180910390f35b34801561033057600080fd5b5061034f60048036038101908080359060200190929190505050610a49565b005b34801561035d57600080fd5b50610366610acc565b005b34801561037457600080fd5b5061037d610b4d565b6040518082815260200191505060405180910390f35b34801561039f57600080fd5b506103e4600480360381019080803560001916906020019092919080359060200190929190803560001916906020019092919080359060200190929190505050610b77565b6040518082815260200191505060405180910390f35b34801561040657600080fd5b5061040f610c06565b005b34801561041d57600080fd5b506104466004803603810190808035906020019092919080359060200190929190505050610d08565b005b34801561045457600080fd5b5061047360048036038101908080359060200190929190505050610d8d565b60405180868152602001856000191660001916815260200184815260200183600019166000191681526020018281526020019550505050505060405180910390f35b3480156104c157600080fd5b506104ea6004803603810190808035906020019092919080359060200190929190505050610dc3565b005b3480156104f857600080fd5b50610501610e48565b005b34801561050f57600080fd5b50610518610edd565b005b34801561052657600080fd5b5061054560048036038101908080359060200190929190505050610f9d565b604051808215151515815260200191505060405180910390f35b34801561056b57600080fd5b50610574610fd0565b604051808273ffffffffffffffffffffffffffffffffffffffff1673ffffffffffffffffffffffffffffffffffffffff16815260200191505060405180910390f35b6105de6004803603810190808035906020019092919080359060200190929190505050610ff6565b005b3480156105ec57600080fd5b506105f56110db565b6040518082815260200191505060405180910390f35b34801561061757600080fd5b50610620611145565b6040518082815260200191505060405180910390f35b34801561064257600080fd5b5061064b611161565b6040518082815260200191505060405180910390f35b34801561066d57600080fd5b5061068c6004803603810190808035906020019092919050505061116a565b604051808560001916600019168152602001848152602001836000191660001916815260200182815260200194505050505060405180910390f35b3480156106d357600080fd5b506106f260048036038101908080359060200190929190505050611240565b604051808215151515815260200191505060405180910390f35b34801561071857600080fd5b5061074d600480360381019080803573ffffffffffffffffffffffffffffffffffffffff169060200190929190505050611307565b6040518082815260200191505060405180910390f35b34801561076f57600080fd5b50610778611408565b60405180826000191660001916815260200191505060405180910390f35b3480156107a257600080fd5b506107d7600480360381019080803573ffffffffffffffffffffffffffffffffffffffff16906020019092919050505061140e565b005b3480156107e557600080fd5b5061081a600480360381019080803573ffffffffffffffffffffffffffffffffffffffff169060200190929190505050611475565b005b6000602a905090565b6000806000915060009050600090505b600a805490508110156108915760011515600a8281548110151561085557fe5b90600052602060002090602091828204019190069054906101000a900460ff1615151415610884576001820191505b8080600101915050610835565b8191505090565b6000809054906101000a900473ffffffffffffffffffffffffffffffffffffffff1673ffffffffffffffffffffffffffffffffffffffff163373ffffffffffffffffffffffffffffffffffffffff161415156108f357600080fd5b600060149054906101000a900460ff16151561090e57600080fd5b60008060146101000a81548160ff0219169083151502179055507f7805862f689e2f13df9f062ff482ad3ad112aca9e0847911ed832e158c525b3360405160405180910390a1565b60095481565b6000809054906101000a900473ffffffffffffffffffffffffffffffffffffffff1673ffffffffffffffffffffffffffffffffffffffff163373ffffffffffffffffffffffffffffffffffffffff161415156109b757600080fd5b600060149054906101000a900460ff161515156109d357600080fd5b6109dd82826114e9565b5050565b600084891480156109f9575083600019168860001916145b8015610a0c575082600019168760001916145b8015610a1757508186145b15610a255760019050610a2a565b600090505b98975050505050505050565b600060149054906101000a900460ff1681565b6000809054906101000a900473ffffffffffffffffffffffffffffffffffffffff1673ffffffffffffffffffffffffffffffffffffffff163373ffffffffffffffffffffffffffffffffffffffff16141515610aa457600080fd5b600060149054906101000a900460ff16151515610ac057600080fd5b610ac981611591565b50565b6000809054906101000a900473ffffffffffffffffffffffffffffffffffffffff1673ffffffffffffffffffffffffffffffffffffffff163373ffffffffffffffffffffffffffffffffffffffff16141515610b2757600080fd5b600060149054906101000a900460ff16151515610b4357600080fd5b610b4b61167b565b565b60008060149054906101000a900460ff16151515610b6a57600080fd5b610b72611161565b905090565b60008060009054906101000a900473ffffffffffffffffffffffffffffffffffffffff1673ffffffffffffffffffffffffffffffffffffffff163373ffffffffffffffffffffffffffffffffffffffff16141515610bd457600080fd5b600060149054906101000a900460ff16151515610bf057600080fd5b610bfc85858585611758565b9050949350505050565b6000809054906101000a900473ffffffffffffffffffffffffffffffffffffffff1673ffffffffffffffffffffffffffffffffffffffff163373ffffffffffffffffffffffffffffffffffffffff16141515610c6157600080fd5b6000809054906101000a900473ffffffffffffffffffffffffffffffffffffffff1673ffffffffffffffffffffffffffffffffffffffff167ff8df31144d9c2f0f6b59d69b8b98abd5459d07f2742c4df920b25aae33c6482060405160405180910390a260008060006101000a81548173ffffffffffffffffffffffffffffffffffffffff021916908373ffffffffffffffffffffffffffffffffffffffff160217905550565b6000809054906101000a900473ffffffffffffffffffffffffffffffffffffffff1673ffffffffffffffffffffffffffffffffffffffff163373ffffffffffffffffffffffffffffffffffffffff16141515610d6357600080fd5b600060149054906101000a900460ff16151515610d7f57600080fd5b610d8982826118b9565b5050565b60086020528060005260406000206000915090508060000154908060010154908060020154908060030154908060040154905085565b6000809054906101000a900473ffffffffffffffffffffffffffffffffffffffff1673ffffffffffffffffffffffffffffffffffffffff163373ffffffffffffffffffffffffffffffffffffffff16141515610e1e57600080fd5b600060149054906101000a900460ff16151515610e3a57600080fd5b610e44828261194d565b5050565b6000809054906101000a900473ffffffffffffffffffffffffffffffffffffffff1673ffffffffffffffffffffffffffffffffffffffff163373ffffffffffffffffffffffffffffffffffffffff16141515610ea357600080fd5b6000809054906101000a900473ffffffffffffffffffffffffffffffffffffffff1673ffffffffffffffffffffffffffffffffffffffff16ff5b6000809054906101000a900473ffffffffffffffffffffffffffffffffffffffff1673ffffffffffffffffffffffffffffffffffffffff163373ffffffffffffffffffffffffffffffffffffffff16141515610f3857600080fd5b600060149054906101000a900460ff16151515610f5457600080fd5b6001600060146101000a81548160ff0219169083151502179055507f6985a02210a168e66602d3235cb6db0e70f92b3ba4d376a33c0f3d9434bff62560405160405180910390a1565b600a81815481101515610fac57fe5b9060005260206000209060209182820401919006915054906101000a900460ff1681565b600260009054906101000a900473ffffffffffffffffffffffffffffffffffffffff1681565b600060149054906101000a900460ff1615151561101257600080fd5b611066600260009054906101000a900473ffffffffffffffffffffffffffffffffffffffff166110618360086000878152602001908152602001600020600401546119e190919063ffffffff16565b611a19565b3373ffffffffffffffffffffffffffffffffffffffff166108fc6110a98360086000878152602001908152602001600020600401546119e190919063ffffffff16565b34039081150290604051600060405180830381858888f193505050501580156110d6573d6000803e3d6000fd5b505050565b60008060009054906101000a900473ffffffffffffffffffffffffffffffffffffffff1673ffffffffffffffffffffffffffffffffffffffff163373ffffffffffffffffffffffffffffffffffffffff1614151561113857600080fd5b611140611161565b905090565b600061115c6005600a611af390919063ffffffff16565b905090565b60006002905090565b600080600080611178611c06565b60011515600a8781548110151561118b57fe5b90600052602060002090602091828204019190069054906101000a900460ff1615151415156111b957600080fd5b6008600087815260200190815260200160002060a060405190810160405290816000820154815260200160018201546000191660001916815260200160028201548152602001600382015460001916600019168152602001600482015481525050905080602001518160400151826060015183608001519450945094509450509193509193565b60008060009054906101000a900473ffffffffffffffffffffffffffffffffffffffff1673ffffffffffffffffffffffffffffffffffffffff163373ffffffffffffffffffffffffffffffffffffffff1614151561129d57600080fd5b600060149054906101000a900460ff161515156112b957600080fd5b60011515600a838154811015156112cc57fe5b90600052602060002090602091828204019190069054906101000a900460ff16151514156112fd5760019050611302565b600090505b919050565b6000600160009054906101000a900473ffffffffffffffffffffffffffffffffffffffff1673ffffffffffffffffffffffffffffffffffffffff1663e3a9db1a836040518263ffffffff167c0100000000000000000000000000000000000000000000000000000000028152600401808273ffffffffffffffffffffffffffffffffffffffff1673ffffffffffffffffffffffffffffffffffffffff168152602001915050602060405180830381600087803b1580156113c657600080fd5b505af11580156113da573d6000803e3d6000fd5b505050506040513d60208110156113f057600080fd5b81019080805190602001909291905050509050919050565b60045481565b6000809054906101000a900473ffffffffffffffffffffffffffffffffffffffff1673ffffffffffffffffffffffffffffffffffffffff163373ffffffffffffffffffffffffffffffffffffffff1614151561146957600080fd5b61147281611b0c565b50565b6000809054906101000a900473ffffffffffffffffffffffffffffffffffffffff1673ffffffffffffffffffffffffffffffffffffffff163373ffffffffffffffffffffffffffffffffffffffff161415156114d057600080fd5b8073ffffffffffffffffffffffffffffffffffffffff16ff5b600060086000848152602001908152602001600020600301549050816008600085815260200190815260200160002060030181600019169055507f356e78864449a256f9399f13693c18c5f513081b92062c5b034f3778a37e449b6004548483856040518085600019166000191681526020018481526020018360001916600019168152602001826000191660001916815260200194505050505060405180910390a1505050565b7f98122b1e0757cd821a8c85bc29e3e3c3cea0fef9b3d567819d6ff8acf369dbb86004548260086000858152602001908152602001600020600101546040518084600019166000191681526020018381526020018260001916600019168152602001935050505060405180910390a160086000828152602001908152602001600020600080820160009055600182016000905560028201600090556003820160009055600482016000905550506000600a8281548110151561164f57fe5b90600052602060002090602091828204019190066101000a81548160ff02191690831515021790555050565b6000339050600160009054906101000a900473ffffffffffffffffffffffffffffffffffffffff1673ffffffffffffffffffffffffffffffffffffffff166351cff8d9826040518263ffffffff167c0100000000000000000000000000000000000000000000000000000000028152600401808273ffffffffffffffffffffffffffffffffffffffff1673ffffffffffffffffffffffffffffffffffffffff168152602001915050600060405180830381600087803b15801561173d57600080fd5b505af1158015611751573d6000803e3d6000fd5b5050505050565b600080611763611c06565b600954915086816020019060001916908160001916815250508581604001818152505084816060019060001916908160001916815250508381608001818152505080600860008481526020019081526020016000206000820151816000015560208201518160010190600019169055604082015181600201556060820151816003019060001916905560808201518160040155905050600a6001908060018154018082558091505090600182039060005260206000209060209182820401919006909192909190916101000a81548160ff021916908315150217905550506009600081548092919060010191905055507f823653c27be00a13fd133babbab43a3415d2317616330199f263fcd60509788b60045483896040518084600019166000191681526020018381526020018260001916600019168152602001935050505060405180910390a18192505050949350505050565b6000600860008481526020019081526020016000206002015490508160086000858152602001908152602001600020600201819055507f6cb1a1a1eb9375f0e9e5174efe1b054994a9277bfaeb70eb010bbda4a2a410b660045484838560405180856000191660001916815260200184815260200183815260200182815260200194505050505060405180910390a1505050565b6000600860008481526020019081526020016000206004015490508160086000858152602001908152602001600020600401819055507f69747595fc0a45519da9323157a93da485808aba05c576659627ed498ff73a2960045484838560405180856000191660001916815260200184815260200183815260200182815260200194505050505060405180910390a1505050565b6000808314156119f45760009050611a13565b8183029050818382811515611a0557fe5b04141515611a0f57fe5b8090505b92915050565b600160009054906101000a900473ffffffffffffffffffffffffffffffffffffffff1673ffffffffffffffffffffffffffffffffffffffff1663f340fa0182846040518363ffffffff167c0100000000000000000000000000000000000000000000000000000000028152600401808273ffffffffffffffffffffffffffffffffffffffff1673ffffffffffffffffffffffffffffffffffffffff1681526020019150506000604051808303818588803b158015611ad657600080fd5b505af1158015611aea573d6000803e3d6000fd5b50505050505050565b6000828211151515611b0157fe5b818303905092915050565b600073ffffffffffffffffffffffffffffffffffffffff168173ffffffffffffffffffffffffffffffffffffffff1614151515611b4857600080fd5b8073ffffffffffffffffffffffffffffffffffffffff166000809054906101000a900473ffffffffffffffffffffffffffffffffffffffff1673ffffffffffffffffffffffffffffffffffffffff167f8be0079c531659141344cd1fd0a4f28419497f9722a3daafe3b4186f6b6457e060405160405180910390a3806000806101000a81548173ffffffffffffffffffffffffffffffffffffffff021916908373ffffffffffffffffffffffffffffffffffffffff16021790555050565b60a060405190810160405280600081526020016000801916815260200160008152602001600080191681526020016000815250905600a165627a7a72305820104674990830bd74e3fa6a7c0ebdca47aa62589d0e40232dd745f59cfd68ce5700296080604052336000806101000a81548173ffffffffffffffffffffffffffffffffffffffff021916908373ffffffffffffffffffffffffffffffffffffffff1602179055506107fe806100536000396000f300608060405260043610610078576000357c0100000000000000000000000000000000000000000000000000000000900463ffffffff16806351cff8d91461007d578063715018a6146100c05780638da5cb5b146100d7578063e3a9db1a1461012e578063f2fde38b14610185578063f340fa01146101c8575b600080fd5b34801561008957600080fd5b506100be600480360381019080803573ffffffffffffffffffffffffffffffffffffffff1690602001909291905050506101fe565b005b3480156100cc57600080fd5b506100d561039e565b005b3480156100e357600080fd5b506100ec6104a0565b604051808273ffffffffffffffffffffffffffffffffffffffff1673ffffffffffffffffffffffffffffffffffffffff16815260200191505060405180910390f35b34801561013a57600080fd5b5061016f600480360381019080803573ffffffffffffffffffffffffffffffffffffffff1690602001909291905050506104c5565b6040518082815260200191505060405180910390f35b34801561019157600080fd5b506101c6600480360381019080803573ffffffffffffffffffffffffffffffffffffffff16906020019092919050505061050e565b005b6101fc600480360381019080803573ffffffffffffffffffffffffffffffffffffffff169060200190929190505050610575565b005b60008060009054906101000a900473ffffffffffffffffffffffffffffffffffffffff1673ffffffffffffffffffffffffffffffffffffffff163373ffffffffffffffffffffffffffffffffffffffff1614151561025b57600080fd5b600160008373ffffffffffffffffffffffffffffffffffffffff1673ffffffffffffffffffffffffffffffffffffffff168152602001908152602001600020549050803073ffffffffffffffffffffffffffffffffffffffff1631101515156102c057fe5b6000600160008473ffffffffffffffffffffffffffffffffffffffff1673ffffffffffffffffffffffffffffffffffffffff168152602001908152602001600020819055508173ffffffffffffffffffffffffffffffffffffffff166108fc829081150290604051600060405180830381858888f1935050505015801561034b573d6000803e3d6000fd5b508173ffffffffffffffffffffffffffffffffffffffff167f7084f5476618d8e60b11ef0d7d3f06914655adb8793e28ff7f018d4c76d505d5826040518082815260200191505060405180910390a25050565b6000809054906101000a900473ffffffffffffffffffffffffffffffffffffffff1673ffffffffffffffffffffffffffffffffffffffff163373ffffffffffffffffffffffffffffffffffffffff161415156103f957600080fd5b6000809054906101000a900473ffffffffffffffffffffffffffffffffffffffff1673ffffffffffffffffffffffffffffffffffffffff167ff8df31144d9c2f0f6b59d69b8b98abd5459d07f2742c4df920b25aae33c6482060405160405180910390a260008060006101000a81548173ffffffffffffffffffffffffffffffffffffffff021916908373ffffffffffffffffffffffffffffffffffffffff160217905550565b6000809054906101000a900473ffffffffffffffffffffffffffffffffffffffff1681565b6000600160008373ffffffffffffffffffffffffffffffffffffffff1673ffffffffffffffffffffffffffffffffffffffff168152602001908152602001600020549050919050565b6000809054906101000a900473ffffffffffffffffffffffffffffffffffffffff1673ffffffffffffffffffffffffffffffffffffffff163373ffffffffffffffffffffffffffffffffffffffff1614151561056957600080fd5b610572816106bc565b50565b60008060009054906101000a900473ffffffffffffffffffffffffffffffffffffffff1673ffffffffffffffffffffffffffffffffffffffff163373ffffffffffffffffffffffffffffffffffffffff161415156105d257600080fd5b34905061062781600160008573ffffffffffffffffffffffffffffffffffffffff1673ffffffffffffffffffffffffffffffffffffffff168152602001908152602001600020546107b690919063ffffffff16565b600160008473ffffffffffffffffffffffffffffffffffffffff1673ffffffffffffffffffffffffffffffffffffffff168152602001908152602001600020819055508173ffffffffffffffffffffffffffffffffffffffff167f2da466a7b24304f47e87fa2e1e5a81b9831ce54fec19055ce277ca2f39ba42c4826040518082815260200191505060405180910390a25050565b600073ffffffffffffffffffffffffffffffffffffffff168173ffffffffffffffffffffffffffffffffffffffff16141515156106f857600080fd5b8073ffffffffffffffffffffffffffffffffffffffff166000809054906101000a900473ffffffffffffffffffffffffffffffffffffffff1673ffffffffffffffffffffffffffffffffffffffff167f8be0079c531659141344cd1fd0a4f28419497f9722a3daafe3b4186f6b6457e060405160405180910390a3806000806101000a81548173ffffffffffffffffffffffffffffffffffffffff021916908373ffffffffffffffffffffffffffffffffffffffff16021790555050565b600081830190508281101515156107c957fe5b809050929150505600a165627a7a72305820987473d936053510859dcbc7c2309fa0287f21c76a10429a1805928bc04aea970029",
  "source": "pragma solidity ^0.4.24;\n\n//Marketplace Material to look for : https://github.com/MShah890/Ethereum-MarketPlace/blob/master/Blockchain%20Backend/contracts/MarketPlace.sol\n//Contract acceptin erc20 : https://programtheblockchain.com/posts/2018/02/27/writing-a-token-market-contract/\n//Separate eternal storage and app logic : https://blog.colony.io/writing-upgradeable-contracts-in-solidity-6743f0eecc88\n//Dynamic Dummy image generator : https://dummyimage.com/\n\nimport 'openzeppelin-solidity/contracts/ownership/Ownable.sol';\nimport 'openzeppelin-solidity/contracts/lifecycle/Pausable.sol';\nimport 'openzeppelin-solidity/contracts/lifecycle/Destructible.sol';\nimport 'openzeppelin-solidity/contracts/payment/PullPayment.sol';\nimport \"./StoreLogic.sol\";\n\ncontract Store is\n  Ownable,\n  Pausable,\n  Destructible,\n  PullPayment,\n  StoreLogic\n  {\n\n  constructor (address _owner, bytes32 _name)\n    public\n    StoreLogic(_owner, _name)\n    {\n    }\n\n/*\n  constructor (bytes32 _name, address _marketplace, string _dataset)\n    public\n    StoreLogic(_name, _marketplace, _dataset)\n    {\n    }\n*/\n  function heartBeatPausable()\n    //onlyOwner\n    whenNotPaused //function won't be callable when the contract is in the paused state\n    public\n    view\n    returns (uint)\n      {\n        return (super.heartBeat());\n      }\n\n  function heartBeatOnlyOwner()\n    onlyOwner\n    //whenNotPaused //function won't be callable when the contract is in the paused state\n    public\n    view\n    returns (uint)\n    {\n        return (super.heartBeat());\n    }\n\n/*\n  function buySth1Ether(uint256 _id)\n    payable\n    public\n      {\n      //test purpose, skipping verification\n      uint256 amount = 1 ether;\n      uint256 remAmount = msg.value - amount;\n      asyncTransfer(owner, amount);\n      msg.sender.transfer(remAmount);\n      }\n*/\n  //function withdrawReceivedPayments ()\n\n  function withdrawPayments()\n    public\n    onlyOwner\n    whenNotPaused\n      {\n        super.withdrawPayments();\n      }\n\n  //TBD, add require no more ether in the contract\n  //function destroy()\n\n  function purchaseProduct (uint256 id, uint256 quantity)\n    public\n    payable\n    whenNotPaused\n    {\n      asyncTransfer(owner, ((products[id].price).mul(quantity)));\n      msg.sender.transfer(msg.value - ((products[id].price).mul(quantity)));\n    }\n\n  function removeProduct (uint256 id)\n    public\n    onlyOwner\n    whenNotPaused\n    {\n      super.removeProduct (id);\n    }\n\n  function addProduct (bytes32 _name, uint256 _quantity, bytes32 _description, uint256 _price)\n    public\n    onlyOwner\n    whenNotPaused\n    returns (uint)\n    {\n      return (super.addProduct (_name, _quantity, _description, _price));\n    }\n\n  function updatePrice (uint256 id, uint256 _price)\n    public\n    onlyOwner\n    whenNotPaused\n    {\n      super.updatePrice (id, _price);\n    }\n\n  function updateQuantity (uint256 id, uint256 _quantity)\n    public\n    onlyOwner\n    whenNotPaused\n    {\n      super.updateQuantity (id, _quantity);\n    }\n  function updateDescription (uint256 id, bytes32 _description)\n    public\n    onlyOwner\n    whenNotPaused\n    {\n      super.updateDescription (id, _description);\n    }\n\n  function productIsForSale (uint256 id)\n    public\n    view\n    onlyOwner\n    whenNotPaused\n    returns (bool)\n    {\n      if(isForSale[id]==true)return true;\n      else return false;\n    }\n\n}\n",
  "sourcePath": "/Users/MikaelKais/Desktop/Consensys/projects/Marketplace/contracts/Store.sol",
  "compiler": {
    "name": "solc",
    "version": "0.4.24+commit.e67f0147.Emscripten.clang"
  },
  "schemaVersion": "2.0.1",
  "updatedAt": "2018-08-19T11:05:01.668Z"
}