{
  "contractName": "StoreLogic",
  "abi": [
    {
      "constant": true,
      "inputs": [],
      "name": "productNumber",
      "outputs": [
        {
          "name": "",
          "type": "uint256"
        }
      ],
      "payable": false,
      "stateMutability": "view",
      "type": "function"
    },
    {
      "constant": true,
      "inputs": [
        {
          "name": "",
          "type": "uint256"
        }
      ],
      "name": "products",
      "outputs": [
        {
          "name": "id",
          "type": "uint256"
        },
        {
          "name": "name",
          "type": "bytes32"
        },
        {
          "name": "quantity",
          "type": "uint256"
        },
        {
          "name": "description",
          "type": "bytes32"
        },
        {
          "name": "price",
          "type": "uint256"
        }
      ],
      "payable": false,
      "stateMutability": "view",
      "type": "function"
    },
    {
      "constant": true,
      "inputs": [
        {
          "name": "",
          "type": "uint256"
        }
      ],
      "name": "isForSale",
      "outputs": [
        {
          "name": "",
          "type": "bool"
        }
      ],
      "payable": false,
      "stateMutability": "view",
      "type": "function"
    },
    {
      "constant": true,
      "inputs": [],
      "name": "owner",
      "outputs": [
        {
          "name": "",
          "type": "address"
        }
      ],
      "payable": false,
      "stateMutability": "view",
      "type": "function"
    },
    {
      "constant": true,
      "inputs": [],
      "name": "store_name",
      "outputs": [
        {
          "name": "",
          "type": "bytes32"
        }
      ],
      "payable": false,
      "stateMutability": "view",
      "type": "function"
    },
    {
      "inputs": [
        {
          "name": "_owner",
          "type": "address"
        },
        {
          "name": "_name",
          "type": "bytes32"
        }
      ],
      "payable": false,
      "stateMutability": "nonpayable",
      "type": "constructor"
    },
    {
      "payable": false,
      "stateMutability": "nonpayable",
      "type": "fallback"
    },
    {
      "anonymous": false,
      "inputs": [
        {
          "indexed": false,
          "name": "storeName",
          "type": "bytes32"
        },
        {
          "indexed": false,
          "name": "byAddress",
          "type": "address"
        }
      ],
      "name": "LogCreate",
      "type": "event"
    },
    {
      "anonymous": false,
      "inputs": [
        {
          "indexed": false,
          "name": "storeName",
          "type": "bytes32"
        },
        {
          "indexed": false,
          "name": "byAddress",
          "type": "address"
        }
      ],
      "name": "LogDelete",
      "type": "event"
    },
    {
      "anonymous": false,
      "inputs": [
        {
          "indexed": false,
          "name": "storeName",
          "type": "bytes32"
        },
        {
          "indexed": false,
          "name": "id",
          "type": "uint256"
        },
        {
          "indexed": false,
          "name": "name",
          "type": "bytes32"
        }
      ],
      "name": "LogAddProduct",
      "type": "event"
    },
    {
      "anonymous": false,
      "inputs": [
        {
          "indexed": false,
          "name": "storeName",
          "type": "bytes32"
        },
        {
          "indexed": false,
          "name": "id",
          "type": "uint256"
        },
        {
          "indexed": false,
          "name": "name",
          "type": "bytes32"
        }
      ],
      "name": "LogRemoveProduct",
      "type": "event"
    },
    {
      "anonymous": false,
      "inputs": [
        {
          "indexed": false,
          "name": "storeName",
          "type": "bytes32"
        },
        {
          "indexed": false,
          "name": "id",
          "type": "uint256"
        },
        {
          "indexed": false,
          "name": "oldPrice",
          "type": "uint256"
        },
        {
          "indexed": false,
          "name": "newPrice",
          "type": "uint256"
        }
      ],
      "name": "LogUpdatePrice",
      "type": "event"
    },
    {
      "anonymous": false,
      "inputs": [
        {
          "indexed": false,
          "name": "storeName",
          "type": "bytes32"
        },
        {
          "indexed": false,
          "name": "id",
          "type": "uint256"
        },
        {
          "indexed": false,
          "name": "oldQuantity",
          "type": "uint256"
        },
        {
          "indexed": false,
          "name": "newQuantity",
          "type": "uint256"
        }
      ],
      "name": "LogUpdateQuantity",
      "type": "event"
    },
    {
      "anonymous": false,
      "inputs": [
        {
          "indexed": false,
          "name": "storeName",
          "type": "bytes32"
        },
        {
          "indexed": false,
          "name": "id",
          "type": "uint256"
        },
        {
          "indexed": false,
          "name": "oldDescription",
          "type": "bytes32"
        },
        {
          "indexed": false,
          "name": "newDescription",
          "type": "bytes32"
        }
      ],
      "name": "LogUpdateDescription",
      "type": "event"
    },
    {
      "anonymous": false,
      "inputs": [
        {
          "indexed": false,
          "name": "id",
          "type": "uint256"
        },
        {
          "indexed": false,
          "name": "quantity",
          "type": "uint256"
        },
        {
          "indexed": false,
          "name": "totalPrice",
          "type": "uint256"
        },
        {
          "indexed": false,
          "name": "customerAddress",
          "type": "address"
        }
      ],
      "name": "LogPurchaseProduct",
      "type": "event"
    },
    {
      "constant": true,
      "inputs": [],
      "name": "dummy",
      "outputs": [
        {
          "name": "",
          "type": "uint256"
        }
      ],
      "payable": false,
      "stateMutability": "pure",
      "type": "function"
    },
    {
      "constant": true,
      "inputs": [],
      "name": "nProductsForSale",
      "outputs": [
        {
          "name": "n",
          "type": "uint256"
        }
      ],
      "payable": false,
      "stateMutability": "view",
      "type": "function"
    },
    {
      "constant": true,
      "inputs": [],
      "name": "heartBeat",
      "outputs": [
        {
          "name": "",
          "type": "uint256"
        }
      ],
      "payable": false,
      "stateMutability": "pure",
      "type": "function"
    },
    {
      "constant": true,
      "inputs": [],
      "name": "useSub",
      "outputs": [
        {
          "name": "",
          "type": "uint256"
        }
      ],
      "payable": false,
      "stateMutability": "pure",
      "type": "function"
    },
    {
      "constant": false,
      "inputs": [
        {
          "name": "_name",
          "type": "bytes32"
        },
        {
          "name": "_quantity",
          "type": "uint256"
        },
        {
          "name": "_description",
          "type": "bytes32"
        },
        {
          "name": "_price",
          "type": "uint256"
        }
      ],
      "name": "addProduct",
      "outputs": [
        {
          "name": "",
          "type": "uint256"
        }
      ],
      "payable": false,
      "stateMutability": "nonpayable",
      "type": "function"
    },
    {
      "constant": true,
      "inputs": [
        {
          "name": "id",
          "type": "uint256"
        }
      ],
      "name": "getProduct",
      "outputs": [
        {
          "name": "name",
          "type": "bytes32"
        },
        {
          "name": "quantity",
          "type": "uint256"
        },
        {
          "name": "description",
          "type": "bytes32"
        },
        {
          "name": "price",
          "type": "uint256"
        }
      ],
      "payable": false,
      "stateMutability": "view",
      "type": "function"
    },
    {
      "constant": false,
      "inputs": [
        {
          "name": "id",
          "type": "uint256"
        }
      ],
      "name": "removeProduct",
      "outputs": [],
      "payable": false,
      "stateMutability": "nonpayable",
      "type": "function"
    },
    {
      "constant": false,
      "inputs": [
        {
          "name": "id",
          "type": "uint256"
        },
        {
          "name": "_price",
          "type": "uint256"
        }
      ],
      "name": "updatePrice",
      "outputs": [],
      "payable": false,
      "stateMutability": "nonpayable",
      "type": "function"
    },
    {
      "constant": false,
      "inputs": [
        {
          "name": "id",
          "type": "uint256"
        },
        {
          "name": "_quantity",
          "type": "uint256"
        }
      ],
      "name": "updateQuantity",
      "outputs": [],
      "payable": false,
      "stateMutability": "nonpayable",
      "type": "function"
    },
    {
      "constant": false,
      "inputs": [
        {
          "name": "id",
          "type": "uint256"
        },
        {
          "name": "_description",
          "type": "bytes32"
        }
      ],
      "name": "updateDescription",
      "outputs": [],
      "payable": false,
      "stateMutability": "nonpayable",
      "type": "function"
    },
    {
      "constant": true,
      "inputs": [
        {
          "name": "_id1",
          "type": "uint256"
        },
        {
          "name": "_name1",
          "type": "bytes32"
        },
        {
          "name": "_description1",
          "type": "bytes32"
        },
        {
          "name": "_price1",
          "type": "uint256"
        },
        {
          "name": "_id2",
          "type": "uint256"
        },
        {
          "name": "_name2",
          "type": "bytes32"
        },
        {
          "name": "_description2",
          "type": "bytes32"
        },
        {
          "name": "_price2",
          "type": "uint256"
        }
      ],
      "name": "identicalProduct",
      "outputs": [
        {
          "name": "isIdentical",
          "type": "bool"
        }
      ],
      "payable": false,
      "stateMutability": "pure",
      "type": "function"
    }
  ],
  "bytecode": "0x60806040526000600155600060075534801561001a57600080fd5b50604051604080610d688339810180604052810190808051906020019092919080519060200190929190505050816000806101000a81548173ffffffffffffffffffffffffffffffffffffffff021916908373ffffffffffffffffffffffffffffffffffffffff160217905550806002816000191690555080600281600019169055507ffc823e830d9b24db06997c3fc70e7e94abbdfebfaad33b6e911ca347118e77f6600254336040518083600019166000191681526020018273ffffffffffffffffffffffffffffffffffffffff1673ffffffffffffffffffffffffffffffffffffffff1681526020019250505060405180910390a15050610c45806101236000396000f3006080604052600436106100e6576000357c0100000000000000000000000000000000000000000000000000000000900463ffffffff16806332e43a11146100f85780633d98de2b146101235780635034735d1461014e57806354efe54c1461017957806357b57f39146101b45780635ee95cae1461024f5780636ce114a01461027c57806379cd4921146102e35780637acc0b201461031a57806382367b2d146103875780638546d002146103be5780638da5cb5b14610403578063b41db7cc1461045a578063b56a9f2c14610485578063b9db15b4146104b0578063f2663f1814610516575b3480156100f257600080fd5b50600080fd5b34801561010457600080fd5b5061010d610549565b6040518082815260200191505060405180910390f35b34801561012f57600080fd5b50610138610552565b6040518082815260200191505060405180910390f35b34801561015a57600080fd5b506101636105c5565b6040518082815260200191505060405180910390f35b34801561018557600080fd5b506101b26004803603810190808035906020019092919080356000191690602001909291905050506105cb565b005b3480156101c057600080fd5b50610235600480360381019080803590602001909291908035600019169060200190929190803560001916906020019092919080359060200190929190803590602001909291908035600019169060200190929190803560001916906020019092919080359060200190929190505050610673565b604051808215151515815260200191505060405180910390f35b34801561025b57600080fd5b5061027a600480360381019080803590602001909291905050506106c8565b005b34801561028857600080fd5b506102cd6004803603810190808035600019169060200190929190803590602001909291908035600019169060200190929190803590602001909291905050506107b2565b6040518082815260200191505060405180910390f35b3480156102ef57600080fd5b506103186004803603810190808035906020019092919080359060200190929190505050610913565b005b34801561032657600080fd5b50610345600480360381019080803590602001909291905050506109a7565b60405180868152602001856000191660001916815260200184815260200183600019166000191681526020018281526020019550505050505060405180910390f35b34801561039357600080fd5b506103bc60048036038101908080359060200190929190803590602001909291905050506109dd565b005b3480156103ca57600080fd5b506103e960048036038101908080359060200190929190505050610a71565b604051808215151515815260200191505060405180910390f35b34801561040f57600080fd5b50610418610aa4565b604051808273ffffffffffffffffffffffffffffffffffffffff1673ffffffffffffffffffffffffffffffffffffffff16815260200191505060405180910390f35b34801561046657600080fd5b5061046f610ac9565b6040518082815260200191505060405180910390f35b34801561049157600080fd5b5061049a610ae5565b6040518082815260200191505060405180910390f35b3480156104bc57600080fd5b506104db60048036038101908080359060200190929190505050610aee565b604051808560001916600019168152602001848152602001836000191660001916815260200182815260200194505050505060405180910390f35b34801561052257600080fd5b5061052b610bc4565b60405180826000191660001916815260200191505060405180910390f35b6000602a905090565b6000806000915060009050600090505b6008805490508110156105be576001151560088281548110151561058257fe5b90600052602060002090602091828204019190069054906101000a900460ff16151514156105b1576001820191505b8080600101915050610562565b8191505090565b60075481565b600060066000848152602001908152602001600020600301549050816006600085815260200190815260200160002060030181600019169055507f356e78864449a256f9399f13693c18c5f513081b92062c5b034f3778a37e449b6002548483856040518085600019166000191681526020018481526020018360001916600019168152602001826000191660001916815260200194505050505060405180910390a1505050565b6000848914801561068b575083600019168860001916145b801561069e575082600019168760001916145b80156106a957508186145b156106b757600190506106bc565b600090505b98975050505050505050565b7f98122b1e0757cd821a8c85bc29e3e3c3cea0fef9b3d567819d6ff8acf369dbb86002548260066000858152602001908152602001600020600101546040518084600019166000191681526020018381526020018260001916600019168152602001935050505060405180910390a16006600082815260200190815260200160002060008082016000905560018201600090556002820160009055600382016000905560048201600090555050600060088281548110151561078657fe5b90600052602060002090602091828204019190066101000a81548160ff02191690831515021790555050565b6000806107bd610be3565b60075491508681602001906000191690816000191681525050858160400181815250508481606001906000191690816000191681525050838160800181815250508060066000848152602001908152602001600020600082015181600001556020820151816001019060001916905560408201518160020155606082015181600301906000191690556080820151816004015590505060086001908060018154018082558091505090600182039060005260206000209060209182820401919006909192909190916101000a81548160ff021916908315150217905550506007600081548092919060010191905055507f823653c27be00a13fd133babbab43a3415d2317616330199f263fcd60509788b60025483896040518084600019166000191681526020018381526020018260001916600019168152602001935050505060405180910390a18192505050949350505050565b6000600660008481526020019081526020016000206002015490508160066000858152602001908152602001600020600201819055507f6cb1a1a1eb9375f0e9e5174efe1b054994a9277bfaeb70eb010bbda4a2a410b660025484838560405180856000191660001916815260200184815260200183815260200182815260200194505050505060405180910390a1505050565b60066020528060005260406000206000915090508060000154908060010154908060020154908060030154908060040154905085565b6000600660008481526020019081526020016000206004015490508160066000858152602001908152602001600020600401819055507f69747595fc0a45519da9323157a93da485808aba05c576659627ed498ff73a2960025484838560405180856000191660001916815260200184815260200183815260200182815260200194505050505060405180910390a1505050565b600881815481101515610a8057fe5b9060005260206000209060209182820401919006915054906101000a900460ff1681565b6000809054906101000a900473ffffffffffffffffffffffffffffffffffffffff1681565b6000610ae06005600a610bca90919063ffffffff16565b905090565b60006002905090565b600080600080610afc610be3565b60011515600887815481101515610b0f57fe5b90600052602060002090602091828204019190069054906101000a900460ff161515141515610b3d57600080fd5b6006600087815260200190815260200160002060a060405190810160405290816000820154815260200160018201546000191660001916815260200160028201548152602001600382015460001916600019168152602001600482015481525050905080602001518160400151826060015183608001519450945094509450509193509193565b60025481565b6000828211151515610bd857fe5b818303905092915050565b60a060405190810160405280600081526020016000801916815260200160008152602001600080191681526020016000815250905600a165627a7a7230582004707ba6da269011d66bf2641440647631827799942e7efce80ac22882a204290029",
  "source": "pragma solidity ^0.4.24;\n\n//P0\n//A jouter dans le fichier pour installation :\n//\"npm install openzeppelin-solidity\"\n\n      import 'openzeppelin-solidity/contracts/math/SafeMath.sol';\n      import './MarketplaceLogic.sol';\n      //import 'openzeppelin-solidity/contracts/payment/PullPayment.sol';\n\n      contract StoreLogic\n        {\n          using SafeMath for uint256;\n\n          //rapatrié de com\n          address public owner;\n          //bytes32 public name;\n\n          uint256 count=0;\n          /* Let's make sure everyone knows who owns the store.*/\n          //address public store_owner;\n          /* Let's give a name to the store */\n          bytes32 public store_name;\n\n          /* store balance TO REMOVE ??*/\n          uint256 private store_balance;\n\n          /*dataset to load ?*/\n          string store_dataset;\n          /*address of the marketplace to register*/\n          address marketplace_address;\n          /* Well we sell products */\n          mapping (uint256 => Product) public products;\n          /* Well we have customers */\n          //mapping (address => Customer) customers;\n          /*Product index*/\n          uint256 public productNumber = 0;\n          /*Status of the product*/\n          bool[] public isForSale;\n\n          /* Product is a struct */\n          struct Product {\n            uint256 id;\n            bytes32 name;\n            uint256 quantity;\n            bytes32 description;\n            uint256 price;\n          }\n\n          // Events - publicize actions to external listeners\n          event LogCreate(bytes32 storeName, address byAddress);\n          event LogDelete(bytes32 storeName, address byAddress); // not used yet\n          event LogAddProduct(bytes32 storeName, uint256 id, bytes32 name);\n          event LogRemoveProduct(bytes32 storeName, uint256 id, bytes32 name);\n          event LogUpdatePrice(bytes32 storeName, uint256 id, uint256 oldPrice, uint256 newPrice);\n          event LogUpdateQuantity(bytes32 storeName, uint256 id, uint256 oldQuantity, uint256 newQuantity);\n          event LogUpdateDescription(bytes32 storeName, uint256 id, bytes32 oldDescription, bytes32 newDescription);\n          event LogPurchaseProduct(uint256 id, uint256 quantity, uint256 totalPrice, address customerAddress);\n\n            modifier forSale (uint256 _id)\n            {\n                require (_id >= productNumber && isForSale[_id] == true,\n                  \"Item is not ForSale.\"\n                );\n                _;\n            }\n\n            modifier enoughStock (uint256 _id, uint256 _quantity)\n            {\n                require (_quantity >= products[_id].quantity,\n                  \"Not enough stock.\"\n                );\n                _;\n            }\n\n            modifier paidEnough(uint256 _id, uint256 _quantity) {\n              require ((msg.value >= ((products[_id].price).mul(_quantity))),\n                \"Not enough money.\"\n              );\n              _;\n            }\n\n            modifier giveBackChange(uint256 _id, uint256 _quantity) {\n              //refund them after pay for item (why it is before, _ checks for logic before func)\n              _;\n              msg.sender.transfer(msg.value - products[_id].price * _quantity);\n            }\n\n          // !!!! TBD ? : réaliser le register du store vers la marketplace dans le construteur du store ?\n          constructor (address _owner, bytes32 _name)\n          public {\n              owner = _owner;\n              store_name = _name;\n\n              //store_dataset = \"_dataset\";\n              //marketplace_address = _marketplace;\n              store_name = _name;\n              emit LogCreate(store_name, msg.sender);\n          }\n\n\n          function dummy()\n          public\n          pure\n          returns (uint)\n          {\n            return (42);\n          }\n/*\n          function applyToMarketplace (address marketplaceAddr)\n          public\n          returns (uint256)\n          {\n            MarketplaceLogic myChoice = MarketplaceLogic(marketplaceAddr);\n            return(myChoice.applyToMarketplace(\"toto\"));\n          }\n*/\n//store_name\n          function nProductsForSale () public view returns (uint256 n){\n            n = 0;\n            uint256 i = 0;\n            for(i=0;i<isForSale.length;i++){\n              if(isForSale[i]==true)n=n+1;\n            }\n            return n;\n          }\n\n          function heartBeat ()\n            public\n            pure\n            returns (uint256)\n            {\n            return uint256(2);\n            }\n\n          function useSub()\n            public\n            pure\n            returns (uint256)\n            {\n              return uint256(10).sub(uint256(5));\n            }\n\n\n          function addProduct (bytes32 _name, uint256 _quantity, bytes32 _description, uint256 _price)\n              public\n              returns (uint)\n            {\n            //id = isForSale.length;\n            uint id = productNumber;\n            Product memory product;\n            product.name = _name;\n            product.quantity = _quantity;\n            product.description = _description;\n            product.price = _price;\n            products[id] = product;\n            isForSale.push(true);\n            productNumber++;\n            emit LogAddProduct(store_name, id, _name);\n            return id;\n          }\n\n          function getProduct (uint256 id)\n              public\n              view\n              returns (bytes32 name, uint256 quantity, bytes32 description, uint256 price)\n          {\n              require (isForSale[id]==true);\n              Product memory p = products[id];\n              return (p.name, p.quantity, p.description, p.price);\n          }\n\n          function removeProduct (uint256 id) public {\n            emit LogRemoveProduct(store_name, id, products[id].name);\n            delete products[id];\n            isForSale[id] = false;\n          }\n\n          function updatePrice (uint256 id, uint256 _price) public {\n            uint256 oldPrice = products[id].price;\n            products[id].price = _price;\n            emit LogUpdatePrice(store_name, id, oldPrice, _price);\n          }\n\n          function updateQuantity (uint256 id, uint256 _quantity) public {\n            uint256 oldQuantity = products[id].quantity;\n            products[id].quantity = _quantity;\n            emit LogUpdateQuantity(store_name, id, oldQuantity, _quantity);\n          }\n\n          function updateDescription (uint256 id, bytes32 _description) public {\n            bytes32 oldDescription = products[id].description;\n            products[id].description = _description;\n            emit LogUpdateDescription(store_name, id, oldDescription, _description);\n          }\n/*\n          function purchaseProduct (uint256 id, uint256 quantity)\n          public\n          payable\n          forSale (id)\n          enoughStock (id, quantity)\n          paidEnough(id, quantity)\n          giveBackChange(id, quantity)\n          {\n            //update quantity in store\n            products[id].quantity = products[id].quantity.sub(quantity);\n            //put payment is escrow\n            //asyncTransfer(owner, (products[id].price).mul(quantity));\n\n            emit LogPurchaseProduct(id, quantity, (quantity.mul(products[id].price)), msg.sender);\n          }\n*/\n/*\n          function withdrawReceivedPayments ()\n            public\n            {\n              withdrawPayments();\n            }\n*/\n          function identicalProduct\n            (uint256 _id1, bytes32 _name1, bytes32 _description1, uint256 _price1,\n            uint256 _id2, bytes32 _name2, bytes32 _description2, uint256 _price2)\n            public\n            pure\n            returns (bool isIdentical) {\n              if ((_id1==_id2) && (_name1==_name2) && (_description1==_description2) && (_price1==_price2)) return true;\n              else return false;\n          }\n\n      // Fallback function - Called if other functions don't match call or\n      // sent ether without data\n      // Typically, called when invalid data is sent\n      // Added so ether sent to this contract is reverted if the contract fails\n      // otherwise, the sender's money is transferred to contract\n          function () public {\n            revert();\n          }\n\n}\n",
  "sourcePath": "/Users/MikaelKais/Desktop/Consensys/projects/Marketplace/contracts/StoreLogic.sol",
  "compiler": {
    "name": "solc",
    "version": "0.4.24+commit.e67f0147.Emscripten.clang"
  },
  "schemaVersion": "2.0.1",
  "updatedAt": "2018-08-19T12:49:25.720Z"
}