{
  "contractName": "Store",
  "abi": [
    {
      "constant": false,
      "inputs": [
        {
          "name": "marketplaceAddr",
          "type": "address"
        }
      ],
      "name": "applyToMarketplace",
      "outputs": [
        {
          "name": "",
          "type": "uint256"
        }
      ],
      "payable": false,
      "stateMutability": "nonpayable",
      "type": "function"
    },
    {
      "constant": true,
      "inputs": [],
      "name": "nProductsForSale",
      "outputs": [
        {
          "name": "n",
          "type": "uint256"
        }
      ],
      "payable": false,
      "stateMutability": "view",
      "type": "function"
    },
    {
      "constant": false,
      "inputs": [],
      "name": "unpause",
      "outputs": [],
      "payable": false,
      "stateMutability": "nonpayable",
      "type": "function"
    },
    {
      "constant": true,
      "inputs": [],
      "name": "productNumber",
      "outputs": [
        {
          "name": "",
          "type": "uint256"
        }
      ],
      "payable": false,
      "stateMutability": "view",
      "type": "function"
    },
    {
      "constant": true,
      "inputs": [
        {
          "name": "_id1",
          "type": "uint256"
        },
        {
          "name": "_name1",
          "type": "bytes32"
        },
        {
          "name": "_description1",
          "type": "bytes32"
        },
        {
          "name": "_price1",
          "type": "uint256"
        },
        {
          "name": "_id2",
          "type": "uint256"
        },
        {
          "name": "_name2",
          "type": "bytes32"
        },
        {
          "name": "_description2",
          "type": "bytes32"
        },
        {
          "name": "_price2",
          "type": "uint256"
        }
      ],
      "name": "identicalProduct",
      "outputs": [
        {
          "name": "isIdentical",
          "type": "bool"
        }
      ],
      "payable": false,
      "stateMutability": "pure",
      "type": "function"
    },
    {
      "constant": true,
      "inputs": [],
      "name": "paused",
      "outputs": [
        {
          "name": "",
          "type": "bool"
        }
      ],
      "payable": false,
      "stateMutability": "view",
      "type": "function"
    },
    {
      "constant": false,
      "inputs": [],
      "name": "renounceOwnership",
      "outputs": [],
      "payable": false,
      "stateMutability": "nonpayable",
      "type": "function"
    },
    {
      "constant": true,
      "inputs": [
        {
          "name": "",
          "type": "uint256"
        }
      ],
      "name": "products",
      "outputs": [
        {
          "name": "id",
          "type": "uint256"
        },
        {
          "name": "name",
          "type": "bytes32"
        },
        {
          "name": "quantity",
          "type": "uint256"
        },
        {
          "name": "description",
          "type": "bytes32"
        },
        {
          "name": "price",
          "type": "uint256"
        }
      ],
      "payable": false,
      "stateMutability": "view",
      "type": "function"
    },
    {
      "constant": false,
      "inputs": [],
      "name": "destroy",
      "outputs": [],
      "payable": false,
      "stateMutability": "nonpayable",
      "type": "function"
    },
    {
      "constant": false,
      "inputs": [],
      "name": "pause",
      "outputs": [],
      "payable": false,
      "stateMutability": "nonpayable",
      "type": "function"
    },
    {
      "constant": true,
      "inputs": [
        {
          "name": "",
          "type": "uint256"
        }
      ],
      "name": "isForSale",
      "outputs": [
        {
          "name": "",
          "type": "bool"
        }
      ],
      "payable": false,
      "stateMutability": "view",
      "type": "function"
    },
    {
      "constant": true,
      "inputs": [],
      "name": "owner",
      "outputs": [
        {
          "name": "",
          "type": "address"
        }
      ],
      "payable": false,
      "stateMutability": "view",
      "type": "function"
    },
    {
      "constant": true,
      "inputs": [],
      "name": "useSub",
      "outputs": [
        {
          "name": "",
          "type": "uint256"
        }
      ],
      "payable": false,
      "stateMutability": "pure",
      "type": "function"
    },
    {
      "constant": true,
      "inputs": [],
      "name": "heartBeat",
      "outputs": [
        {
          "name": "",
          "type": "uint256"
        }
      ],
      "payable": false,
      "stateMutability": "pure",
      "type": "function"
    },
    {
      "constant": true,
      "inputs": [
        {
          "name": "id",
          "type": "uint256"
        }
      ],
      "name": "getProduct",
      "outputs": [
        {
          "name": "name",
          "type": "bytes32"
        },
        {
          "name": "quantity",
          "type": "uint256"
        },
        {
          "name": "description",
          "type": "bytes32"
        },
        {
          "name": "price",
          "type": "uint256"
        }
      ],
      "payable": false,
      "stateMutability": "view",
      "type": "function"
    },
    {
      "constant": true,
      "inputs": [
        {
          "name": "_dest",
          "type": "address"
        }
      ],
      "name": "payments",
      "outputs": [
        {
          "name": "",
          "type": "uint256"
        }
      ],
      "payable": false,
      "stateMutability": "view",
      "type": "function"
    },
    {
      "constant": true,
      "inputs": [],
      "name": "store_name",
      "outputs": [
        {
          "name": "",
          "type": "bytes32"
        }
      ],
      "payable": false,
      "stateMutability": "view",
      "type": "function"
    },
    {
      "constant": false,
      "inputs": [
        {
          "name": "_newOwner",
          "type": "address"
        }
      ],
      "name": "transferOwnership",
      "outputs": [],
      "payable": false,
      "stateMutability": "nonpayable",
      "type": "function"
    },
    {
      "constant": false,
      "inputs": [
        {
          "name": "_recipient",
          "type": "address"
        }
      ],
      "name": "destroyAndSend",
      "outputs": [],
      "payable": false,
      "stateMutability": "nonpayable",
      "type": "function"
    },
    {
      "inputs": [
        {
          "name": "_name",
          "type": "bytes32"
        },
        {
          "name": "_marketplace",
          "type": "address"
        },
        {
          "name": "_dataset",
          "type": "string"
        }
      ],
      "payable": false,
      "stateMutability": "nonpayable",
      "type": "constructor"
    },
    {
      "payable": false,
      "stateMutability": "nonpayable",
      "type": "fallback"
    },
    {
      "anonymous": false,
      "inputs": [
        {
          "indexed": false,
          "name": "storeName",
          "type": "bytes32"
        },
        {
          "indexed": false,
          "name": "byAddress",
          "type": "address"
        }
      ],
      "name": "LogCreate",
      "type": "event"
    },
    {
      "anonymous": false,
      "inputs": [
        {
          "indexed": false,
          "name": "storeName",
          "type": "bytes32"
        },
        {
          "indexed": false,
          "name": "byAddress",
          "type": "address"
        }
      ],
      "name": "LogDelete",
      "type": "event"
    },
    {
      "anonymous": false,
      "inputs": [
        {
          "indexed": false,
          "name": "storeName",
          "type": "bytes32"
        },
        {
          "indexed": false,
          "name": "id",
          "type": "uint256"
        },
        {
          "indexed": false,
          "name": "name",
          "type": "bytes32"
        }
      ],
      "name": "LogAddProduct",
      "type": "event"
    },
    {
      "anonymous": false,
      "inputs": [
        {
          "indexed": false,
          "name": "storeName",
          "type": "bytes32"
        },
        {
          "indexed": false,
          "name": "id",
          "type": "uint256"
        },
        {
          "indexed": false,
          "name": "name",
          "type": "bytes32"
        }
      ],
      "name": "LogRemoveProduct",
      "type": "event"
    },
    {
      "anonymous": false,
      "inputs": [
        {
          "indexed": false,
          "name": "storeName",
          "type": "bytes32"
        },
        {
          "indexed": false,
          "name": "id",
          "type": "uint256"
        },
        {
          "indexed": false,
          "name": "oldPrice",
          "type": "uint256"
        },
        {
          "indexed": false,
          "name": "newPrice",
          "type": "uint256"
        }
      ],
      "name": "LogUpdatePrice",
      "type": "event"
    },
    {
      "anonymous": false,
      "inputs": [
        {
          "indexed": false,
          "name": "storeName",
          "type": "bytes32"
        },
        {
          "indexed": false,
          "name": "id",
          "type": "uint256"
        },
        {
          "indexed": false,
          "name": "oldQuantity",
          "type": "uint256"
        },
        {
          "indexed": false,
          "name": "newQuantity",
          "type": "uint256"
        }
      ],
      "name": "LogUpdateQuantity",
      "type": "event"
    },
    {
      "anonymous": false,
      "inputs": [
        {
          "indexed": false,
          "name": "storeName",
          "type": "bytes32"
        },
        {
          "indexed": false,
          "name": "id",
          "type": "uint256"
        },
        {
          "indexed": false,
          "name": "oldDescription",
          "type": "bytes32"
        },
        {
          "indexed": false,
          "name": "newDescription",
          "type": "bytes32"
        }
      ],
      "name": "LogUpdateDescription",
      "type": "event"
    },
    {
      "anonymous": false,
      "inputs": [
        {
          "indexed": false,
          "name": "id",
          "type": "uint256"
        },
        {
          "indexed": false,
          "name": "quantity",
          "type": "uint256"
        },
        {
          "indexed": false,
          "name": "totalPrice",
          "type": "uint256"
        },
        {
          "indexed": false,
          "name": "customerAddress",
          "type": "address"
        }
      ],
      "name": "LogPurchaseProduct",
      "type": "event"
    },
    {
      "anonymous": false,
      "inputs": [],
      "name": "Pause",
      "type": "event"
    },
    {
      "anonymous": false,
      "inputs": [],
      "name": "Unpause",
      "type": "event"
    },
    {
      "anonymous": false,
      "inputs": [
        {
          "indexed": true,
          "name": "previousOwner",
          "type": "address"
        }
      ],
      "name": "OwnershipRenounced",
      "type": "event"
    },
    {
      "anonymous": false,
      "inputs": [
        {
          "indexed": true,
          "name": "previousOwner",
          "type": "address"
        },
        {
          "indexed": true,
          "name": "newOwner",
          "type": "address"
        }
      ],
      "name": "OwnershipTransferred",
      "type": "event"
    },
    {
      "constant": true,
      "inputs": [],
      "name": "heartBeatPausable",
      "outputs": [
        {
          "name": "",
          "type": "uint256"
        }
      ],
      "payable": false,
      "stateMutability": "view",
      "type": "function"
    },
    {
      "constant": true,
      "inputs": [],
      "name": "heartBeatOnlyOwner",
      "outputs": [
        {
          "name": "",
          "type": "uint256"
        }
      ],
      "payable": false,
      "stateMutability": "view",
      "type": "function"
    },
    {
      "constant": false,
      "inputs": [],
      "name": "withdrawPayments",
      "outputs": [],
      "payable": false,
      "stateMutability": "nonpayable",
      "type": "function"
    },
    {
      "constant": false,
      "inputs": [
        {
          "name": "id",
          "type": "uint256"
        },
        {
          "name": "quantity",
          "type": "uint256"
        }
      ],
      "name": "purchaseProduct",
      "outputs": [],
      "payable": true,
      "stateMutability": "payable",
      "type": "function"
    },
    {
      "constant": false,
      "inputs": [
        {
          "name": "id",
          "type": "uint256"
        }
      ],
      "name": "removeProduct",
      "outputs": [],
      "payable": false,
      "stateMutability": "nonpayable",
      "type": "function"
    },
    {
      "constant": false,
      "inputs": [
        {
          "name": "_name",
          "type": "bytes32"
        },
        {
          "name": "_quantity",
          "type": "uint256"
        },
        {
          "name": "_description",
          "type": "bytes32"
        },
        {
          "name": "_price",
          "type": "uint256"
        }
      ],
      "name": "addProduct",
      "outputs": [
        {
          "name": "",
          "type": "uint256"
        }
      ],
      "payable": false,
      "stateMutability": "nonpayable",
      "type": "function"
    },
    {
      "constant": false,
      "inputs": [
        {
          "name": "id",
          "type": "uint256"
        },
        {
          "name": "_price",
          "type": "uint256"
        }
      ],
      "name": "updatePrice",
      "outputs": [],
      "payable": false,
      "stateMutability": "nonpayable",
      "type": "function"
    },
    {
      "constant": false,
      "inputs": [
        {
          "name": "id",
          "type": "uint256"
        },
        {
          "name": "_quantity",
          "type": "uint256"
        }
      ],
      "name": "updateQuantity",
      "outputs": [],
      "payable": false,
      "stateMutability": "nonpayable",
      "type": "function"
    },
    {
      "constant": false,
      "inputs": [
        {
          "name": "id",
          "type": "uint256"
        },
        {
          "name": "_description",
          "type": "bytes32"
        }
      ],
      "name": "updateDescription",
      "outputs": [],
      "payable": false,
      "stateMutability": "nonpayable",
      "type": "function"
    },
    {
      "constant": true,
      "inputs": [
        {
          "name": "id",
          "type": "uint256"
        }
      ],
      "name": "productIsForSale",
      "outputs": [
        {
          "name": "",
          "type": "bool"
        }
      ],
      "payable": false,
      "stateMutability": "view",
      "type": "function"
    }
  ],
  "bytecode": "0x608060405260008060146101000a81548160ff021916908315150217905550600060025560006008553480156200003557600080fd5b506040516200288138038062002881833981018060405281019080805190602001909291908051906020019092919080518201929190505050828282336000806101000a81548173ffffffffffffffffffffffffffffffffffffffff021916908373ffffffffffffffffffffffffffffffffffffffff160217905550620000bb620001ff565b604051809103906000f080158015620000d8573d6000803e3d6000fd5b50600160006101000a81548173ffffffffffffffffffffffffffffffffffffffff021916908373ffffffffffffffffffffffffffffffffffffffff16021790555080600590805190602001906200013192919062000210565b5081600660006101000a81548173ffffffffffffffffffffffffffffffffffffffff021916908373ffffffffffffffffffffffffffffffffffffffff16021790555082600381600019169055507ffc823e830d9b24db06997c3fc70e7e94abbdfebfaad33b6e911ca347118e77f6600354336040518083600019166000191681526020018273ffffffffffffffffffffffffffffffffffffffff1673ffffffffffffffffffffffffffffffffffffffff1681526020019250505060405180910390a1505050505050620002bf565b604051610851806200203083390190565b828054600181600116156101000203166002900490600052602060002090601f016020900481019282601f106200025357805160ff191683800117855562000284565b8280016001018555821562000284579182015b828111156200028357825182559160200191906001019062000266565b5b50905062000293919062000297565b5090565b620002bc91905b80821115620002b85760008160009055506001016200029e565b5090565b90565b611d6180620002cf6000396000f300608060405260043610610175576000357c0100000000000000000000000000000000000000000000000000000000900463ffffffff16806313e371fa146101875780633d98de2b146101de5780633f4ba83a146102095780635034735d1461022057806354efe54c1461024b57806357b57f39146102865780635c975abb146103215780635ee95cae146103505780636103d70b1461037d57806362c3c58a146103945780636ce114a0146103bf578063715018a61461042657806379cd49211461043d5780637acc0b201461047457806382367b2d146104e157806383197ef0146105185780638456cb591461052f5780638546d002146105465780638da5cb5b1461058b578063a0440426146105e2578063afbed9eb1461060c578063b41db7cc14610637578063b56a9f2c14610662578063b9db15b41461068d578063ca0f873b146106f3578063e2982c2114610738578063f2663f181461078f578063f2fde38b146107c2578063f5074f4114610805575b34801561018157600080fd5b50600080fd5b34801561019357600080fd5b506101c8600480360381019080803573ffffffffffffffffffffffffffffffffffffffff169060200190929190505050610848565b6040518082815260200191505060405180910390f35b3480156101ea57600080fd5b506101f3610920565b6040518082815260200191505060405180910390f35b34801561021557600080fd5b5061021e610993565b005b34801561022c57600080fd5b50610235610a51565b6040518082815260200191505060405180910390f35b34801561025757600080fd5b50610284600480360381019080803590602001909291908035600019169060200190929190505050610a57565b005b34801561029257600080fd5b50610307600480360381019080803590602001909291908035600019169060200190929190803560001916906020019092919080359060200190929190803590602001909291908035600019169060200190929190803560001916906020019092919080359060200190929190505050610adc565b604051808215151515815260200191505060405180910390f35b34801561032d57600080fd5b50610336610b31565b604051808215151515815260200191505060405180910390f35b34801561035c57600080fd5b5061037b60048036038101908080359060200190929190505050610b44565b005b34801561038957600080fd5b50610392610bc7565b005b3480156103a057600080fd5b506103a9610c48565b6040518082815260200191505060405180910390f35b3480156103cb57600080fd5b50610410600480360381019080803560001916906020019092919080359060200190929190803560001916906020019092919080359060200190929190505050610c72565b6040518082815260200191505060405180910390f35b34801561043257600080fd5b5061043b610d01565b005b34801561044957600080fd5b506104726004803603810190808035906020019092919080359060200190929190505050610e03565b005b34801561048057600080fd5b5061049f60048036038101908080359060200190929190505050610e88565b60405180868152602001856000191660001916815260200184815260200183600019166000191681526020018281526020019550505050505060405180910390f35b3480156104ed57600080fd5b506105166004803603810190808035906020019092919080359060200190929190505050610ebe565b005b34801561052457600080fd5b5061052d610f43565b005b34801561053b57600080fd5b50610544610fd8565b005b34801561055257600080fd5b5061057160048036038101908080359060200190929190505050611098565b604051808215151515815260200191505060405180910390f35b34801561059757600080fd5b506105a06110cb565b604051808273ffffffffffffffffffffffffffffffffffffffff1673ffffffffffffffffffffffffffffffffffffffff16815260200191505060405180910390f35b61060a60048036038101908080359060200190929190803590602001909291905050506110f0565b005b34801561061857600080fd5b506106216111d4565b6040518082815260200191505060405180910390f35b34801561064357600080fd5b5061064c61123e565b6040518082815260200191505060405180910390f35b34801561066e57600080fd5b5061067761125a565b6040518082815260200191505060405180910390f35b34801561069957600080fd5b506106b860048036038101908080359060200190929190505050611263565b604051808560001916600019168152602001848152602001836000191660001916815260200182815260200194505050505060405180910390f35b3480156106ff57600080fd5b5061071e60048036038101908080359060200190929190505050611339565b604051808215151515815260200191505060405180910390f35b34801561074457600080fd5b50610779600480360381019080803573ffffffffffffffffffffffffffffffffffffffff169060200190929190505050611400565b6040518082815260200191505060405180910390f35b34801561079b57600080fd5b506107a4611501565b60405180826000191660001916815260200191505060405180910390f35b3480156107ce57600080fd5b50610803600480360381019080803573ffffffffffffffffffffffffffffffffffffffff169060200190929190505050611507565b005b34801561081157600080fd5b50610846600480360381019080803573ffffffffffffffffffffffffffffffffffffffff16906020019092919050505061156e565b005b6000808290508073ffffffffffffffffffffffffffffffffffffffff166311e312a86040518163ffffffff167c010000000000000000000000000000000000000000000000000000000002815260040180807f746f746f000000000000000000000000000000000000000000000000000000008152506020019050602060405180830381600087803b1580156108dd57600080fd5b505af11580156108f1573d6000803e3d6000fd5b505050506040513d602081101561090757600080fd5b8101908080519060200190929190505050915050919050565b6000806000915060009050600090505b60098054905081101561098c576001151560098281548110151561095057fe5b90600052602060002090602091828204019190069054906101000a900460ff161515141561097f576001820191505b8080600101915050610930565b8191505090565b6000809054906101000a900473ffffffffffffffffffffffffffffffffffffffff1673ffffffffffffffffffffffffffffffffffffffff163373ffffffffffffffffffffffffffffffffffffffff161415156109ee57600080fd5b600060149054906101000a900460ff161515610a0957600080fd5b60008060146101000a81548160ff0219169083151502179055507f7805862f689e2f13df9f062ff482ad3ad112aca9e0847911ed832e158c525b3360405160405180910390a1565b60085481565b6000809054906101000a900473ffffffffffffffffffffffffffffffffffffffff1673ffffffffffffffffffffffffffffffffffffffff163373ffffffffffffffffffffffffffffffffffffffff16141515610ab257600080fd5b600060149054906101000a900460ff16151515610ace57600080fd5b610ad882826115e2565b5050565b60008489148015610af4575083600019168860001916145b8015610b07575082600019168760001916145b8015610b1257508186145b15610b205760019050610b25565b600090505b98975050505050505050565b600060149054906101000a900460ff1681565b6000809054906101000a900473ffffffffffffffffffffffffffffffffffffffff1673ffffffffffffffffffffffffffffffffffffffff163373ffffffffffffffffffffffffffffffffffffffff16141515610b9f57600080fd5b600060149054906101000a900460ff16151515610bbb57600080fd5b610bc48161168a565b50565b6000809054906101000a900473ffffffffffffffffffffffffffffffffffffffff1673ffffffffffffffffffffffffffffffffffffffff163373ffffffffffffffffffffffffffffffffffffffff16141515610c2257600080fd5b600060149054906101000a900460ff16151515610c3e57600080fd5b610c46611774565b565b60008060149054906101000a900460ff16151515610c6557600080fd5b610c6d61125a565b905090565b60008060009054906101000a900473ffffffffffffffffffffffffffffffffffffffff1673ffffffffffffffffffffffffffffffffffffffff163373ffffffffffffffffffffffffffffffffffffffff16141515610ccf57600080fd5b600060149054906101000a900460ff16151515610ceb57600080fd5b610cf785858585611851565b9050949350505050565b6000809054906101000a900473ffffffffffffffffffffffffffffffffffffffff1673ffffffffffffffffffffffffffffffffffffffff163373ffffffffffffffffffffffffffffffffffffffff16141515610d5c57600080fd5b6000809054906101000a900473ffffffffffffffffffffffffffffffffffffffff1673ffffffffffffffffffffffffffffffffffffffff167ff8df31144d9c2f0f6b59d69b8b98abd5459d07f2742c4df920b25aae33c6482060405160405180910390a260008060006101000a81548173ffffffffffffffffffffffffffffffffffffffff021916908373ffffffffffffffffffffffffffffffffffffffff160217905550565b6000809054906101000a900473ffffffffffffffffffffffffffffffffffffffff1673ffffffffffffffffffffffffffffffffffffffff163373ffffffffffffffffffffffffffffffffffffffff16141515610e5e57600080fd5b600060149054906101000a900460ff16151515610e7a57600080fd5b610e8482826119b2565b5050565b60076020528060005260406000206000915090508060000154908060010154908060020154908060030154908060040154905085565b6000809054906101000a900473ffffffffffffffffffffffffffffffffffffffff1673ffffffffffffffffffffffffffffffffffffffff163373ffffffffffffffffffffffffffffffffffffffff16141515610f1957600080fd5b600060149054906101000a900460ff16151515610f3557600080fd5b610f3f8282611a46565b5050565b6000809054906101000a900473ffffffffffffffffffffffffffffffffffffffff1673ffffffffffffffffffffffffffffffffffffffff163373ffffffffffffffffffffffffffffffffffffffff16141515610f9e57600080fd5b6000809054906101000a900473ffffffffffffffffffffffffffffffffffffffff1673ffffffffffffffffffffffffffffffffffffffff16ff5b6000809054906101000a900473ffffffffffffffffffffffffffffffffffffffff1673ffffffffffffffffffffffffffffffffffffffff163373ffffffffffffffffffffffffffffffffffffffff1614151561103357600080fd5b600060149054906101000a900460ff1615151561104f57600080fd5b6001600060146101000a81548160ff0219169083151502179055507f6985a02210a168e66602d3235cb6db0e70f92b3ba4d376a33c0f3d9434bff62560405160405180910390a1565b6009818154811015156110a757fe5b9060005260206000209060209182820401919006915054906101000a900460ff1681565b6000809054906101000a900473ffffffffffffffffffffffffffffffffffffffff1681565b600060149054906101000a900460ff1615151561110c57600080fd5b61115f6000809054906101000a900473ffffffffffffffffffffffffffffffffffffffff1661115a836007600087815260200190815260200160002060040154611ada90919063ffffffff16565b611b12565b3373ffffffffffffffffffffffffffffffffffffffff166108fc6111a2836007600087815260200190815260200160002060040154611ada90919063ffffffff16565b34039081150290604051600060405180830381858888f193505050501580156111cf573d6000803e3d6000fd5b505050565b60008060009054906101000a900473ffffffffffffffffffffffffffffffffffffffff1673ffffffffffffffffffffffffffffffffffffffff163373ffffffffffffffffffffffffffffffffffffffff1614151561123157600080fd5b61123961125a565b905090565b60006112556005600a611bec90919063ffffffff16565b905090565b60006002905090565b600080600080611271611cff565b6001151560098781548110151561128457fe5b90600052602060002090602091828204019190069054906101000a900460ff1615151415156112b257600080fd5b6007600087815260200190815260200160002060a060405190810160405290816000820154815260200160018201546000191660001916815260200160028201548152602001600382015460001916600019168152602001600482015481525050905080602001518160400151826060015183608001519450945094509450509193509193565b60008060009054906101000a900473ffffffffffffffffffffffffffffffffffffffff1673ffffffffffffffffffffffffffffffffffffffff163373ffffffffffffffffffffffffffffffffffffffff1614151561139657600080fd5b600060149054906101000a900460ff161515156113b257600080fd5b600115156009838154811015156113c557fe5b90600052602060002090602091828204019190069054906101000a900460ff16151514156113f657600190506113fb565b600090505b919050565b6000600160009054906101000a900473ffffffffffffffffffffffffffffffffffffffff1673ffffffffffffffffffffffffffffffffffffffff1663e3a9db1a836040518263ffffffff167c0100000000000000000000000000000000000000000000000000000000028152600401808273ffffffffffffffffffffffffffffffffffffffff1673ffffffffffffffffffffffffffffffffffffffff168152602001915050602060405180830381600087803b1580156114bf57600080fd5b505af11580156114d3573d6000803e3d6000fd5b505050506040513d60208110156114e957600080fd5b81019080805190602001909291905050509050919050565b60035481565b6000809054906101000a900473ffffffffffffffffffffffffffffffffffffffff1673ffffffffffffffffffffffffffffffffffffffff163373ffffffffffffffffffffffffffffffffffffffff1614151561156257600080fd5b61156b81611c05565b50565b6000809054906101000a900473ffffffffffffffffffffffffffffffffffffffff1673ffffffffffffffffffffffffffffffffffffffff163373ffffffffffffffffffffffffffffffffffffffff161415156115c957600080fd5b8073ffffffffffffffffffffffffffffffffffffffff16ff5b600060076000848152602001908152602001600020600301549050816007600085815260200190815260200160002060030181600019169055507f356e78864449a256f9399f13693c18c5f513081b92062c5b034f3778a37e449b6003548483856040518085600019166000191681526020018481526020018360001916600019168152602001826000191660001916815260200194505050505060405180910390a1505050565b7f98122b1e0757cd821a8c85bc29e3e3c3cea0fef9b3d567819d6ff8acf369dbb86003548260076000858152602001908152602001600020600101546040518084600019166000191681526020018381526020018260001916600019168152602001935050505060405180910390a16007600082815260200190815260200160002060008082016000905560018201600090556002820160009055600382016000905560048201600090555050600060098281548110151561174857fe5b90600052602060002090602091828204019190066101000a81548160ff02191690831515021790555050565b6000339050600160009054906101000a900473ffffffffffffffffffffffffffffffffffffffff1673ffffffffffffffffffffffffffffffffffffffff166351cff8d9826040518263ffffffff167c0100000000000000000000000000000000000000000000000000000000028152600401808273ffffffffffffffffffffffffffffffffffffffff1673ffffffffffffffffffffffffffffffffffffffff168152602001915050600060405180830381600087803b15801561183657600080fd5b505af115801561184a573d6000803e3d6000fd5b5050505050565b60008061185c611cff565b60085491508681602001906000191690816000191681525050858160400181815250508481606001906000191690816000191681525050838160800181815250508060076000848152602001908152602001600020600082015181600001556020820151816001019060001916905560408201518160020155606082015181600301906000191690556080820151816004015590505060096001908060018154018082558091505090600182039060005260206000209060209182820401919006909192909190916101000a81548160ff021916908315150217905550506008600081548092919060010191905055507f823653c27be00a13fd133babbab43a3415d2317616330199f263fcd60509788b60035483896040518084600019166000191681526020018381526020018260001916600019168152602001935050505060405180910390a18192505050949350505050565b6000600760008481526020019081526020016000206002015490508160076000858152602001908152602001600020600201819055507f6cb1a1a1eb9375f0e9e5174efe1b054994a9277bfaeb70eb010bbda4a2a410b660035484838560405180856000191660001916815260200184815260200183815260200182815260200194505050505060405180910390a1505050565b6000600760008481526020019081526020016000206004015490508160076000858152602001908152602001600020600401819055507f69747595fc0a45519da9323157a93da485808aba05c576659627ed498ff73a2960035484838560405180856000191660001916815260200184815260200183815260200182815260200194505050505060405180910390a1505050565b600080831415611aed5760009050611b0c565b8183029050818382811515611afe57fe5b04141515611b0857fe5b8090505b92915050565b600160009054906101000a900473ffffffffffffffffffffffffffffffffffffffff1673ffffffffffffffffffffffffffffffffffffffff1663f340fa0182846040518363ffffffff167c0100000000000000000000000000000000000000000000000000000000028152600401808273ffffffffffffffffffffffffffffffffffffffff1673ffffffffffffffffffffffffffffffffffffffff1681526020019150506000604051808303818588803b158015611bcf57600080fd5b505af1158015611be3573d6000803e3d6000fd5b50505050505050565b6000828211151515611bfa57fe5b818303905092915050565b600073ffffffffffffffffffffffffffffffffffffffff168173ffffffffffffffffffffffffffffffffffffffff1614151515611c4157600080fd5b8073ffffffffffffffffffffffffffffffffffffffff166000809054906101000a900473ffffffffffffffffffffffffffffffffffffffff1673ffffffffffffffffffffffffffffffffffffffff167f8be0079c531659141344cd1fd0a4f28419497f9722a3daafe3b4186f6b6457e060405160405180910390a3806000806101000a81548173ffffffffffffffffffffffffffffffffffffffff021916908373ffffffffffffffffffffffffffffffffffffffff16021790555050565b60a060405190810160405280600081526020016000801916815260200160008152602001600080191681526020016000815250905600a165627a7a723058203817552581f3d1fc733f7d48441502450559127499d73b4603cfddf1c6e0300900296080604052336000806101000a81548173ffffffffffffffffffffffffffffffffffffffff021916908373ffffffffffffffffffffffffffffffffffffffff1602179055506107fe806100536000396000f300608060405260043610610078576000357c0100000000000000000000000000000000000000000000000000000000900463ffffffff16806351cff8d91461007d578063715018a6146100c05780638da5cb5b146100d7578063e3a9db1a1461012e578063f2fde38b14610185578063f340fa01146101c8575b600080fd5b34801561008957600080fd5b506100be600480360381019080803573ffffffffffffffffffffffffffffffffffffffff1690602001909291905050506101fe565b005b3480156100cc57600080fd5b506100d561039e565b005b3480156100e357600080fd5b506100ec6104a0565b604051808273ffffffffffffffffffffffffffffffffffffffff1673ffffffffffffffffffffffffffffffffffffffff16815260200191505060405180910390f35b34801561013a57600080fd5b5061016f600480360381019080803573ffffffffffffffffffffffffffffffffffffffff1690602001909291905050506104c5565b6040518082815260200191505060405180910390f35b34801561019157600080fd5b506101c6600480360381019080803573ffffffffffffffffffffffffffffffffffffffff16906020019092919050505061050e565b005b6101fc600480360381019080803573ffffffffffffffffffffffffffffffffffffffff169060200190929190505050610575565b005b60008060009054906101000a900473ffffffffffffffffffffffffffffffffffffffff1673ffffffffffffffffffffffffffffffffffffffff163373ffffffffffffffffffffffffffffffffffffffff1614151561025b57600080fd5b600160008373ffffffffffffffffffffffffffffffffffffffff1673ffffffffffffffffffffffffffffffffffffffff168152602001908152602001600020549050803073ffffffffffffffffffffffffffffffffffffffff1631101515156102c057fe5b6000600160008473ffffffffffffffffffffffffffffffffffffffff1673ffffffffffffffffffffffffffffffffffffffff168152602001908152602001600020819055508173ffffffffffffffffffffffffffffffffffffffff166108fc829081150290604051600060405180830381858888f1935050505015801561034b573d6000803e3d6000fd5b508173ffffffffffffffffffffffffffffffffffffffff167f7084f5476618d8e60b11ef0d7d3f06914655adb8793e28ff7f018d4c76d505d5826040518082815260200191505060405180910390a25050565b6000809054906101000a900473ffffffffffffffffffffffffffffffffffffffff1673ffffffffffffffffffffffffffffffffffffffff163373ffffffffffffffffffffffffffffffffffffffff161415156103f957600080fd5b6000809054906101000a900473ffffffffffffffffffffffffffffffffffffffff1673ffffffffffffffffffffffffffffffffffffffff167ff8df31144d9c2f0f6b59d69b8b98abd5459d07f2742c4df920b25aae33c6482060405160405180910390a260008060006101000a81548173ffffffffffffffffffffffffffffffffffffffff021916908373ffffffffffffffffffffffffffffffffffffffff160217905550565b6000809054906101000a900473ffffffffffffffffffffffffffffffffffffffff1681565b6000600160008373ffffffffffffffffffffffffffffffffffffffff1673ffffffffffffffffffffffffffffffffffffffff168152602001908152602001600020549050919050565b6000809054906101000a900473ffffffffffffffffffffffffffffffffffffffff1673ffffffffffffffffffffffffffffffffffffffff163373ffffffffffffffffffffffffffffffffffffffff1614151561056957600080fd5b610572816106bc565b50565b60008060009054906101000a900473ffffffffffffffffffffffffffffffffffffffff1673ffffffffffffffffffffffffffffffffffffffff163373ffffffffffffffffffffffffffffffffffffffff161415156105d257600080fd5b34905061062781600160008573ffffffffffffffffffffffffffffffffffffffff1673ffffffffffffffffffffffffffffffffffffffff168152602001908152602001600020546107b690919063ffffffff16565b600160008473ffffffffffffffffffffffffffffffffffffffff1673ffffffffffffffffffffffffffffffffffffffff168152602001908152602001600020819055508173ffffffffffffffffffffffffffffffffffffffff167f2da466a7b24304f47e87fa2e1e5a81b9831ce54fec19055ce277ca2f39ba42c4826040518082815260200191505060405180910390a25050565b600073ffffffffffffffffffffffffffffffffffffffff168173ffffffffffffffffffffffffffffffffffffffff16141515156106f857600080fd5b8073ffffffffffffffffffffffffffffffffffffffff166000809054906101000a900473ffffffffffffffffffffffffffffffffffffffff1673ffffffffffffffffffffffffffffffffffffffff167f8be0079c531659141344cd1fd0a4f28419497f9722a3daafe3b4186f6b6457e060405160405180910390a3806000806101000a81548173ffffffffffffffffffffffffffffffffffffffff021916908373ffffffffffffffffffffffffffffffffffffffff16021790555050565b600081830190508281101515156107c957fe5b809050929150505600a165627a7a72305820987473d936053510859dcbc7c2309fa0287f21c76a10429a1805928bc04aea970029",
  "source": "pragma solidity ^0.4.24;\n\n//Marketplace Material to look for : https://github.com/MShah890/Ethereum-MarketPlace/blob/master/Blockchain%20Backend/contracts/MarketPlace.sol\n//Contract acceptin erc20 : https://programtheblockchain.com/posts/2018/02/27/writing-a-token-market-contract/\n//Separate eternal storage and app logic : https://blog.colony.io/writing-upgradeable-contracts-in-solidity-6743f0eecc88\n//Dynamic Dummy image generator : https://dummyimage.com/\n\nimport 'openzeppelin-solidity/contracts/ownership/Ownable.sol';\nimport 'openzeppelin-solidity/contracts/lifecycle/Pausable.sol';\nimport 'openzeppelin-solidity/contracts/lifecycle/Destructible.sol';\nimport 'openzeppelin-solidity/contracts/payment/PullPayment.sol';\nimport \"./StoreLogic.sol\";\n\ncontract Store is\n  Ownable,\n  Pausable,\n  Destructible,\n  PullPayment,\n  StoreLogic  {\n\n  constructor (bytes32 _name, address _marketplace, string _dataset)\n    public\n    StoreLogic(_name, _marketplace, _dataset)\n    {\n    }\n\n  function heartBeatPausable()\n    //onlyOwner\n    whenNotPaused //function won't be callable when the contract is in the paused state\n    public\n    view\n    returns (uint)\n      {\n        return (super.heartBeat());\n      }\n\n  function heartBeatOnlyOwner()\n    onlyOwner\n    //whenNotPaused //function won't be callable when the contract is in the paused state\n    public\n    view\n    returns (uint)\n    {\n        return (super.heartBeat());\n    }\n\n/*\n  function buySth1Ether(uint256 _id)\n    payable\n    public\n      {\n      //test purpose, skipping verification\n      uint256 amount = 1 ether;\n      uint256 remAmount = msg.value - amount;\n      asyncTransfer(owner, amount);\n      msg.sender.transfer(remAmount);\n      }\n*/\n  //function withdrawReceivedPayments ()\n\n  function withdrawPayments()\n    public\n    onlyOwner\n    whenNotPaused\n      {\n        super.withdrawPayments();\n      }\n\n  //TBD, add require no more ether in the contract\n  //function destroy()\n\n  function purchaseProduct (uint256 id, uint256 quantity)\n    public\n    payable\n    whenNotPaused\n    {\n      asyncTransfer(owner, ((products[id].price).mul(quantity)));\n      msg.sender.transfer(msg.value - ((products[id].price).mul(quantity)));\n    }\n\n  function removeProduct (uint256 id)\n    public\n    onlyOwner\n    whenNotPaused\n    {\n      super.removeProduct (id);\n    }\n\n  function addProduct (bytes32 _name, uint256 _quantity, bytes32 _description, uint256 _price)\n    public\n    onlyOwner\n    whenNotPaused\n    returns (uint)\n    {\n      return (super.addProduct (_name, _quantity, _description, _price));\n    }\n\n  function updatePrice (uint256 id, uint256 _price)\n    public\n    onlyOwner\n    whenNotPaused\n    {\n      super.updatePrice (id, _price);\n    }\n\n  function updateQuantity (uint256 id, uint256 _quantity)\n    public\n    onlyOwner\n    whenNotPaused\n    {\n      super.updateQuantity (id, _quantity);\n    }\n  function updateDescription (uint256 id, bytes32 _description)\n    public\n    onlyOwner\n    whenNotPaused\n    {\n      super.updateDescription (id, _description);\n    }\n\n  function productIsForSale (uint256 id)\n    public\n    view\n    onlyOwner\n    whenNotPaused\n    returns (bool)\n    {\n      if(isForSale[id]==true)return true;\n      else return false;\n    }\n\n}\n",
  "sourcePath": "/Users/MikaelKais/Desktop/Consensys/projects/Marketplace/contracts/Store.sol",
  "compiler": {
    "name": "solc",
    "version": "0.4.24+commit.e67f0147.Emscripten.clang"
  },
  "schemaVersion": "2.0.1",
  "updatedAt": "2018-08-19T10:38:05.052Z"
}